:100000000C942A000C94A1220C941F1F0C944700FE
:100010000C9447000C94CE0B0C9447000C944700B2
:100020000C9447000C9447000C9447000C94470034
:100030000C9447000C9447000C9447000C94470024
:100040000C9447000C9447000C9447000C94470014
:100050000C94470011241FBECFE5D8E0DEBFCDBF12
:1000600014E1A0E6B0E0EEEDF9E402C005900D92D7
:10007000A233B107D9F716E1A2E3B4E101C01D92A2
:10008000AA34B107E1F70E943B240C94ED240C94B0
:100090000000EF92FF920F931F937B018C0120E0F1
:1000A00030E040E05FE40E94C50388238CF0C80183
:1000B000B70120E030E040E05FE40E94C1010E940F
:1000C000F5039B01AC01205030404040504806C031
:1000D000C801B7010E94F5039B01AC01B901CA0137
:1000E0001F910F91FF90EF900895A0E0B0E0EBE733
:1000F000F0E00C94B624DC012B01FA019C919230C3
:1001000008F439C1EB018881823008F433C194309E
:1001100069F4843009F02FC111969C91119789815F
:10012000981709F428C1A9E2B9E025C1843009F47F
:1001300021C18230A9F4923009F01DC19A01AD01AC
:1001400088E0EA010990AE01E90109929E0181501F
:10015000C1F7E201898111969C918923818308C1AD
:10016000923009F407C112962D903C901397EB0141
:100170008A819B811496AD90BD90CD90DC901797AD
:10018000EC80FD800E811F819101281B390BB90184
:1001900037FF04C066277727621B730B6032710537
:1001A0000CF061C0121613066CF537014801062EDB
:1001B00004C096948794779467940A94D2F721E0C8
:1001C00030E040E050E004C0220F331F441F551FB1
:1001D0006A95D2F721503040404050402E213F21B7
:1001E00040235123211531054105510521F021E01E
:1001F00030E040E050E079018A01E628F72808293C
:1002000019293CC0232BD1F1260E371E350146019A
:10021000062E04C096948794779467940A94D2F734
:1002200021E030E040E050E004C0220F331F441FC3
:10023000551F6A95D2F721503040404050402A2146
:100240003B214C215D21211531054105510521F04E
:1002500021E030E040E050E059016A01A628B728CB
:10026000C828D9280BC0821593052CF01C01AA249C
:10027000BB24650103C0EE24FF24870111969C91E5
:10028000D20111968C91981709F445C0992339F041
:10029000A80197012A193B094C095D0906C0A6016E
:1002A00095012E193F09400B510B57FD08C01182D3
:1002B0003382228224833583468357831DC081E0A5
:1002C00081833382228288279927DC01821B930B4A
:1002D000A40BB50B84839583A683B7830DC0220F2F
:1002E000331F441F551F24833583468357838281E0
:1002F000938101979383828324813581468157813D
:10030000DA01C9010197A109B1098F5F9F4FAF4F72
:10031000BF4328F30BC0918333822282EA0CFB1C7B
:100320000C1D1D1DE482F5820683178383E0808304
:10033000248135814681578157FF1AC0C901AA27F8
:1003400097FDA095BA2F81709070A070B0705695EF
:10035000479537952795822B932BA42BB52B848318
:100360009583A683B7838281938101969383828349
:10037000DF0101C0D201CD01CDB7DEB7E2E10C94BF
:10038000D224A0E2B0E0E7ECF1E00C94C22469834F
:100390007A838B839C832D833E834F835887E9E048
:1003A000EE2EF12CEC0EFD1ECE010196B7010E943F
:1003B000E6058E010F5E1F4FCE010596B8010E9423
:1003C000E6058A8991E089278A8BC701B801AE01C9
:1003D000475E5F4F0E9475000E941105A096E6E0FF
:1003E0000C94DE24A0E2B0E0E8EFF1E00C94C2242B
:1003F00069837A838B839C832D833E834F835887C5
:10040000F9E0EF2EF12CEC0EFD1ECE010196B701A6
:100410000E94E6058E010F5E1F4FCE010596B801C2
:100420000E94E605C701B801AE01475E5F4F0E941A
:1004300075000E941105A096E6E00C94DE24A0E26F
:10044000B0E0E5E2F2E00C94B62469837A838B8312
:100450009C832D833E834F835887CE010196BE0136
:10046000675F7F4F0E94E605CE010596BE016F5E75
:100470007F4F0E94E6059985923088F08989823005
:10048000C8F0943019F4823051F404C0843029F457
:10049000923081F489E299E0C6C0923049F420E0BC
:1004A0009A858A89981321E02A87CE010996BBC0D4
:1004B000823049F420E09A858A89981321E02A8BBA
:1004C000CE014196B0C02D843E844F8458886D88FB
:1004D0007E888F88988CEE24FF248701AA24BB2471
:1004E000650140E050E060E070E0E0E0F0E0C10174
:1004F00081709070892BE9F0E60CF71C081D191D1E
:100500009A01AB012A0D3B1D4C1D5D1D80E090E062
:10051000A0E0B0E0E614F7040805190520F481E036
:1005200090E0A0E0B0E0BA01A901480F591F6A1F8E
:100530007B1FAA0CBB1CCC1CDD1C97FE08C081E0F5
:1005400090E0A0E0B0E0A82AB92ACA2ADB2A3196B6
:10055000E032F10549F0660C771C881C991C569412
:10056000479437942794C3CFFA85EA892B893C892D
:100570008B859C85280F391F2E5F3F4F17C0CA01FE
:1005800081709070892B61F016950795F794E79428
:1005900080E090E0A0E0B0E8E82AF92A0A2B1B2BC3
:1005A00076956795579547952F5F3F4F77FDE7CF36
:1005B0000CC0440F551F661F771F17FD4160EE0CDE
:1005C000FF1C001F111F21503040403090E05907A0
:1005D00090E0690790E4790760F32B8F3C8FDB0193
:1005E000CA018F779070A070B07080349105A1051A
:1005F000B10561F447FD0AC0E114F10401051105DC
:1006000029F0405C5F4F6F4F7F4F40781A8EFE1786
:1006100011F081E08A8F4D8F5E8F6F8F78A383E01A
:10062000898FCE0149960E941105A096E2E10C94B3
:10063000D224A8E1B0E0EFE1F3E00C94BE2469839A
:100640007A838B839C832D833E834F835887B9E0C5
:10065000EB2EF12CEC0EFD1ECE010196B7010E948F
:10066000E6058E010F5E1F4FCE010596B8010E9470
:10067000E6052985223008F47EC03989323010F42D
:10068000B8017CC08A859A8989278A87243011F02D
:10069000223031F4231709F06EC069E279E06EC0B0
:1006A000343039F41D861E861F86188A1C861B86E8
:1006B00004C0323021F484E08987B7015FC02B8504
:1006C0003C858B899C89281B390B3C872B87ED84C3
:1006D000FE840F851889AD88BE88CF88D88CEA142F
:1006E000FB040C051D0540F4EE0CFF1C001F111F40
:1006F000215030403C872B8720E030E040E050E044
:1007000080E090E0A0E0B0E460E070E0EA14FB0478
:100710000C051D0540F0282B392B4A2B5B2BEA18C2
:10072000FB080C091D09B695A79597958795EE0CC2
:10073000FF1C001F111F6F5F7F4F6F31710531F775
:10074000DA01C9018F779070A070B0708034910584
:10075000A105B10561F427FD0AC0E114F10401050A
:10076000110529F0205C3F4F4F4F5F4F20782D87B8
:100770003E874F87588BBE01675F7F4FCB010E943A
:1007800011056896EAE00C94DA24A8E1B0E0EBECFD
:10079000F3E00C94C22469837A838B839C832D833A
:1007A0003E834F83588789E0E82EF12CEC0EFD1E26
:1007B000CE010196B7010E94E6058E010F5E1F4F24
:1007C000CE010596B8010E94E6058985823040F089
:1007D0008989823028F0C701B8010E945E0601C0F5
:1007E0008FEF6896E6E00C94DE24ACE0B0E0EBEF2F
:1007F000F3E00C94C62469837A838B839C83CE01B7
:100800000196BE016B5F7F4F0E94E6058D818230AD
:1008100061F1823050F1843021F48E81882351F1CE
:100820002EC02F81388537FD20C06E812F313105D4
:100830001CF06623F9F023C08EE190E0821B930B3D
:1008400029853A854B855C8504C056954795379533
:1008500027958A95D2F76623B1F05095409530954B
:1008600021953F4F4F4F5F4F0EC020E030E040E0FA
:1008700050E009C02FEF3FEF4FEF5FE704C020E0EB
:1008800030E040E050E8B901CA012C96E2E00C9457
:10089000E224A8E0B0E0EFE4F4E00C94BE247B0195
:1008A0008C01611571058105910519F482E0898338
:1008B00060C083E089838EE1C82ED12CDC82CB829C
:1008C000ED82FE820F831887C801B7010E94C2041F
:1008D000FC013197F7FF3BC0222733272E1B3F0B2C
:1008E00057016801022E04C0D694C794B794A79408
:1008F0000A94D2F740E050E060E070E081E090E0E0
:10090000A0E0B0E004C0880F991FAA1FBB1F2A9562
:10091000D2F70197A109B1098E219F21A023B1230C
:100920000097A105B10521F041E050E060E070E0E2
:100930004A295B296C297D294D835E836F837887E3
:100940008EE190E08E1B9F0B9C838B8312C03097AF
:1009500081F00E2E04C0EE0CFF1C001F111F0A9424
:10096000D2F7ED82FE820F831887CE1ADF0ADC826F
:10097000CB821A82CE0101960E9411052896EAE0E8
:100980000C94DA24EF92FF920F931F937B018C015A
:1009900080E0E81680E0F80681E0080780E01807AC
:1009A00088F48FEFE816F1040105110531F028F005
:1009B00088E090E0A0E0B0E017C080E090E0A0E028
:1009C000B0E012C080E0E81680E0F80680E008079A
:1009D00081E0180728F088E190E0A0E0B0E004C0D2
:1009E00080E190E0A0E0B0E020E230E040E050E0C4
:1009F000281B390B4A0B5B0B04C016950795F7941F
:100A0000E7948A95D2F7F701EF5CF64F8081281BB7
:100A1000310941095109C9011F910F91FF90EF90D0
:100A20000895DF92EF92FF920F931F93FC01E480F1
:100A3000F58006811781D1808081823048F480E082
:100A400090E0A0E1B0E0E82AF92A0A2B1B2BA5C010
:100A5000843009F49FC0823021F4EE24FF24870102
:100A600005C0E114F1040105110519F4E0E0F0E01E
:100A700096C0628173819FEF623879070CF05BC08A
:100A800022E83FEF261B370B2A3131052CF020E0FE
:100A900030E040E050E02AC0B801A701022E04C0B7
:100AA00076956795579547950A94D2F781E090E03F
:100AB000A0E0B0E004C0880F991FAA1FBB1F2A95B1
:100AC000D2F70197A109B1098E219F21A023B1235B
:100AD0000097A105B10521F081E090E0A0E0B0E031
:100AE0009A01AB01282B392B4A2B5B2BDA01C90168
:100AF0008F779070A070B07080349105A105B1051A
:100B000039F427FF09C0205C3F4F4F4F5F4F04C0AF
:100B1000215C3F4F4F4F5F4FE0E0F0E02030A0E01E
:100B20003A07A0E04A07A0E45A0710F0E1E0F0E03D
:100B300079018A0127C06038710564F5FB01E1582D
:100B4000FF4FD801C7018F779070A070B0708034CC
:100B50009105A105B10539F4E7FE0DC080E490E0F0
:100B6000A0E0B0E004C08FE390E0A0E0B0E0E80EC9
:100B7000F91E0A1F1B1F17FF05C016950795F7944E
:100B8000E794319687E016950795F794E7948A9550
:100B9000D1F705C0EE24FF248701EFEFF0E06E2FC0
:100BA000679566276795902F9F77D794DD24D79414
:100BB0008E2F8695492F462B582F5D29B701CA01E4
:100BC0001F910F91FF90EF90DF900895FC01DB01E2
:100BD000408151812281622F6F7770E0221F22278E
:100BE000221F9381892F880F822B282F30E0991F95
:100BF0009927991F11969C93119721153105A9F5F5
:100C0000411551056105710511F482E037C082E894
:100C10009FEF13969C938E9312979A01AB0167E016
:100C2000220F331F441F551F6A95D1F783E08C9321
:100C30000DC0220F331F441F551F12968D919C919A
:100C40001397019713969C938E931297203080E010
:100C5000380780E0480780E4580758F314962D932E
:100C60003D934D935C93179708952F3F310579F489
:100C7000411551056105710519F484E08C930895BF
:100C800064FF03C081E08C9312C01C9210C02F57E8
:100C9000304013963C932E93129783E08C9387E019
:100CA000440F551F661F771F8A95D1F770641496FD
:100CB0004D935D936D937C93179708951F93DC017B
:100CC000FB019C91923008F447C08081823008F487
:100CD00043C0943051F411961C91843099F5818170
:100CE000682F70E0611B71093FC0843021F09230A1
:100CF00031F48230B9F18181882389F12DC01196B8
:100D00001C9111978230F1F081811817D9F4129655
:100D10002D913C911397828193818217930794F0D0
:100D200028173907BCF014968D919D910D90BC91B8
:100D3000A02D2481358146815781281739074A071C
:100D40005B0718F4112341F00AC082179307A40728
:100D5000B50740F4112319F061E070E005C06FEFB2
:100D60007FEF02C060E070E0CB011F910895FB01AE
:100D7000DC014150504030F08D910190801919F400
:100D80000020B9F7881B990B0895FB019F01E89497
:100D90004230C4F04532B4F44A3029F497FB1EF4D3
:100DA000909581959F4F642F77270E946D24805DD9
:100DB0008A330CF0895D8193CB010097A1F716F47B
:100DC0005DE251931082C9010C94E606DC01FC013E
:100DD000672F71917723E1F7329704C07C916D936F
:100DE00070836291AE17BF07C8F3089587B93E9A22
:100DF0003D98369A349BFECF349A24B145B1942F56
:100E000080E030E0282B392BC901089581E660E0AD
:100E10000E940F0786B1876086B9379A0895843497
:100E2000E9F0853438F48234A1F08334A0F48134BD
:100E300061F40DC0823669F0833618F4813629F4E6
:100E400006C0833641F0843649F08FEF08956ABBBF
:100E500003C067BB01C064BB81E0089561BB81E052
:100E600008958434E9F0853438F48234A1F0833471
:100E7000A0F4813461F40DC0823669F0833618F431
:100E8000813629F406C0833641F0843649F08FEF6D
:100E900008956BBB03C068BB01C065BB81E00895CA
:100EA00062BB81E00895DF93CF930F92CDB7DEB799
:100EB0008434D9F0853438F4823499F0833498F44A
:100EC0008134A9F40CC0823661F0833618F481367F
:100ED00071F405C0833639F0843649F406C089B30D
:100EE00007C086B305C083B303C080B301C08FEFD2
:100EF0008983898190E00F90CF91DF9108958434A8
:100F000009F46FC0853440F4823491F1833408F0E1
:100F10004CC0813471F40FC0823651F1833618F41D
:100F2000813639F408C0833609F43FC0843609F4A9
:100F300058C08FEF0895442321F0413009F06EC06E
:100F40000CC02AB381E090E002C0880F991F6A9517
:100F5000E2F7809582238ABB5FC02AB381E090E0EC
:100F600002C0880F991F6A95E2F7282B2ABB54C04C
:100F7000442321F0413009F051C00CC027B381E077
:100F800090E002C0880F991F6A95E2F7809582234E
:100F900087BB42C027B381E090E002C0880F991F51
:100FA0006A95E2F7282B27BB37C0442319F041305C
:100FB000A9F50CC024B381E090E002C0880F991F0E
:100FC0006A95E2F78095822384BB26C024B381E032
:100FD00090E002C0880F991F6A95E2F7282B24BB86
:100FE0001BC0442319F04130C9F40CC021B381E087
:100FF00090E002C0880F991F6A95E2F780958223DE
:1010000081BB0AC021B381E090E002C0880F991F24
:101010006A95E2F7282B21BB81E0089581E00895CD
:10102000683008F044C08434B1F1853438F4823437
:10103000E1F0833428F58134D1F50CC08236A9F073
:10104000833618F4813699F505C08336C9F08436A5
:1010500071F521C02BB381E090E002C0880F991F89
:101060006A95E2F7282B2BBB20C028B381E090E0E3
:1010700002C0880F991F6A95E2F7282B28BB15C07C
:1010800025B381E090E002C0880F991F6A95E2F7CE
:10109000282B25BB0AC022B381E090E002C0880F54
:1010A000991F6A95E2F7282B22BB81E008958FEF04
:1010B0000895683008F049C08434D1F1853440F493
:1010C0008234F1F0833440F5813409F03EC00CC025
:1010D0008236B1F0833618F48136B9F505C083360F
:1010E000D9F0843691F524C02BB381E090E002C0A2
:1010F000880F991F6A95E2F7809582238BBB23C0E6
:1011000028B381E090E002C0880F991F6A95E2F74A
:101110008095822388BB17C025B381E090E002C090
:10112000880F991F6A95E2F78095822385BB0BC0D3
:1011300022B381E090E002C0880F991F6A95E2F720
:101140008095822382BB81E008958FEF08958434D7
:1011500001F1853438F48234A9F08334B0F4813459
:1011600061F40DC0823671F0833618F4813629F4AB
:1011700006C0833651F0843661F08FEF08958FEF0B
:101180008BBB05C08FEF88BB02C08FEF85BB81E0B2
:1011900008958FEF82BB81E008958434E9F08534AF
:1011A00038F48234A1F08334A0F4813461F40DC0AA
:1011B000823669F0833618F4813629F406C0833606
:1011C00041F0843649F08FEF08951BBA03C018BA76
:1011D00001C015BA81E0089512BA81E0089568301F
:1011E00008F044C08434B1F1853438F48234E1F03D
:1011F000833428F58134D1F50CC08236A9F08336CA
:1012000018F4813699F505C08336C9F0843671F536
:1012100021C02BB381E090E002C0880F991F6A952E
:10122000E2F728272BBB20C028B381E090E002C062
:10123000880F991F6A95E2F7282728BB15C025B3A8
:1012400081E090E002C0880F991F6A95E2F7282795
:1012500025BB0AC022B381E090E002C0880F991F2D
:101260006A95E2F7282722BB81E008958FEF089561
:10127000683038F5843419F1853438F4823499F0C3
:10128000833498F48134E9F40CC0823661F08336FB
:1012900018F48136B1F405C0833639F0843689F408
:1012A0000EC029B303C026B301C023B381E090E090
:1012B00002C0880F991F6A95E2F7282303C020B364
:1012C000F5CF2FEF822F0895E199FECF9FBB8EBB04
:1012D0006DBBE29AE19A0895E199FECF9FBB8EBB68
:1012E000E09A80ED97E00197F1F78DB308959C01A6
:1012F000FB018081882369F408958081E199FECF04
:101300003FBB2EBB8DBBE29AE19A2F5F3F4F3196D8
:101310004150442391F708959C01DB018C9188236F
:1013200079F40895E199FECF3FBB2EBBE09AFB0113
:101330003197F1F78DB38D932F5F3F4F415002C02E
:1013400060ED77E0442371F7089580E090E02FEF9F
:10135000E199FECF9FBB8EBB2DBBE29AE19A01962D
:1013600034E080309307A1F7089583B984E886BFFD
:1013700006B607FEFDCF089584EA86BF06B607FECF
:10138000FDCF089584E986BF089511B887E480B938
:1013900084E086BF08958295880F880F807C8468DA
:1013A00086BF06B607FEFDCF83B108951FBC089522
:1013B000CF92DF92EF92FF921F93CF93DF936C0156
:1013C000EB0183E48EBD85E00E94290B85E00E943D
:1013D000710B08B605FC05C085E00E94610B8823EF
:1013E000C1F385E00E94610B182F85E00E94820BFB
:1013F00085E00E948E0BE6B4F7B488B7806288BFA0
:10140000113011F410E026C085E0BE010E94290BC6
:1014100085E00E94710B08B605FC05C085E00E94BE
:10142000610B8823C1F385E00E94610B10E08130DD
:1014300009F011E085E00E94820B85E00E948E0B8E
:1014400086B597B58E199F09F6019183808388B779
:10145000806288BF812FDF91CF911F91FF90EF9025
:10146000DF90CF900895CF92DF92EF92FF921F937B
:10147000CF93DF936C01EB0183E48EBD85E00E9486
:10148000290B85E00E94710B08B605FC05C085E0BC
:101490000E94610B8823C1F385E00E94610B182F25
:1014A00085E00E94820B85E00E948E0BE6B4F7B4C3
:1014B00088B7806288BF113011F410E028C083E043
:1014C0008EBD85E0BE010E94290B85E00E94710B54
:1014D00008B605FC05C085E00E94610B8823C1F3B6
:1014E00085E00E94610B10E0813009F011E085E099
:1014F0000E94820B85E00E948E0B86B597B58E19EF
:101500009F09F6019183808388B7806288BF812F0D
:10151000DF91CF911F91FF90EF90DF90CF900895D2
:10152000882329F4BB9A13BE8BE683BF12BE0895AD
:10153000662309F48CBF0895982F662349F48FEF32
:10154000989FC001112464E670E00E9481246CBF62
:1015500008958FB9779BFECF8FB10895CF93DF9316
:10156000EC01DB0120E030E00BC0FE01E20FF31FD5
:1015700080818FB9779BFECF8FB18D932F5F3F4FC7
:10158000241798F3DF91CF910895CF93DF93EC0167
:1015900087E00E94710B88818FB9779905C087E039
:1015A0000E94610B8823C9F387E00E94820B87E0C9
:1015B0000E948E0B8EB19FB19883881F8827881F49
:1015C000DF91CF910895813031F487B3806B87BB71
:1015D000BE986C9A01C0BE9A8DB183648DB987E0C4
:1015E00065E070E00E94290B089540E050E0FA01A8
:1015F000EE0FFF1FE40FF51FEE0FFF1FEE5CFB4E1B
:101600006581613079F4828193810196938382832D
:1016100022813381808191812817390719F413823F
:10162000128264834F5F5F4F4A30510501F708957E
:1016300090E0FC01EE0FFF1FE80FF91FEE0FFF1FF8
:10164000EE5CFB4E1382128211821082148215828C
:10165000089590E0FC01EE0FFF1FE80FF91FEE0F59
:10166000FF1FEE5CFB4E80819181892B31F47183E9
:1016700060831382128214821582089540E050E044
:10168000FA01EE0FFF1FE40FF51FEE0FFF1FEE5CD8
:10169000FB4E6581613079F4828193810196938359
:1016A000828322813381808191812817390719F43F
:1016B0001382128264834F5F5F4F4A30510501F7F6
:1016C000089590E0FC01EE0FFF1FE80FF91FEE0FE9
:1016D000FF1FEE5CFB4E8481882311F0148281E0B1
:1016E000089590E0FC01EE0FFF1FE80FF91FEE0FC9
:1016F000FF1FEE5CFB4E80819181892B11F081E010
:101700008583089590E0FC01EE0FFF1FE80FF91F9D
:10171000EE0FFF1FEE5CFB4E1582089590E0FC017A
:10172000EE0FFF1FE80FF91FEE0FFF1FEE5CFB4EE1
:101730001382128208950E94B70B85EF9AE00E94EF
:10174000C40B80E090E0FC01EE0FFF1FE80FF91FD3
:10175000EE0FFF1FEE5CFB4E13821282118210828D
:101760001482158201968A30910569F7089585B52E
:10177000876085BD89E784BD89B7806489BF88B7E4
:10178000806488BF7894089590936F1480936E144A
:10179000089510926F1410926E1408951F920F9274
:1017A0000FB60F9211242F933F934F935F936F9334
:1017B0007F938F939F93AF93BF93EF93FF93E091AA
:1017C0006E14F0916F14309709F0099589E784BD84
:1017D00088B7806488BFFF91EF91BF91AF919F91CF
:1017E0008F917F916F915F914F913F912F910F90CA
:1017F0000FBE0F901F9018958BB1881F8827881FE8
:1018000008955F9BFECF8CB108955D9BFECF8CB990
:101810000895FC0180E006C090815D9BFECF9CB9DD
:101820008F5F31968617C0F30895FC01E0818E2FFB
:1018300082958F708A3010F0895C01C0805D5D9B5D
:10184000FECF8CB9EF70EA3010F0E95C01C0E05DCA
:101850005D9BFECFECB908951F93182F86E00E9480
:10186000710B5D9905C086E00E94610B8823C9F366
:1018700086E00E94820B86E00E948E0B5D9902C07A
:1018800080E002C01CB981E01F910895CF93DF93DF
:10189000EC0186E00E94710B5F9905C086E00E9412
:1018A000610B8823C9F386E00E94820B86E00E94C8
:1018B0008E0B8BB19CB19883881F8827881FDF917E
:1018C000CF910895CF93DF93EC011AB810BC288113
:1018D00039814A815B8194E0220F331F441F551FD9
:1018E0009A95D1F760E072E18AE790E00E94942433
:1018F0002150304040405040BB27A52F942F832FCC
:1019000080BD29B98F818111579A88858111569A96
:1019100089858111549A8A858111539A90B58E8157
:101920008295807F892B80BD90B58D81880F880F2F
:10193000880F892B80BD2C81293011F4529A0CC05C
:10194000253069F0263019F480B5826807C0273049
:1019500019F480B5846802C080B5866880BD86E0D1
:1019600065E070E00E94290BDF91CF910895EF921E
:10197000FF920F931F93CF93DF93EC0168EE73E018
:101980000E946D24182F092F64E670E00E946D24D8
:10199000F82EE92E83E0C83ED807E8F083E467E03C
:1019A0000E94590883E466E00E94100883E464E022
:1019B0000E94100883E465E00E941008CE0168EEE2
:1019C00073E00E946D2482E40E94310780E197E277
:1019D0000197F1F703C0C436D105E8F083E466E06F
:1019E0000E94590883E467E00E94100883E464E0E1
:1019F0000E94100883E465E00E941008812F902F58
:101A000064E670E00E946D2482E40E94310780E168
:101A100097E20197F1F72A97E8F083E465E00E94E6
:101A2000590883E464E00E94100883E467E00E94A0
:101A3000100883E466E00E9410088F2D9E2D6AE056
:101A400070E00E946D2482E40E94310780E197E2F9
:101A50000197F1F783E465E00E94100883E466E0F3
:101A60000E94100883E467E00E94100883E464E0A9
:101A70000E9459088F2D9E2D6AE070E00E946D240F
:101A8000682F82E40E94310780E197E20197F1F725
:101A9000DF91CF911F910F91FF90EF90089582E415
:101AA0006FE00E940F0783E460EF0E940F07089524
:101AB0008F929F92AF92BF92CF92DF92EF92FF925E
:101AC0000F931F93CF93DF937B018C016A01E90190
:101AD000611571058105910521F480E3FA01808388
:101AE00042C0AA242AE030E040E050E00E94942462
:101AF000C901DA01BC01CD01A3946115710581050D
:101B0000910581F7A882E6014601BB2419C0C801EE
:101B1000B7012AE030E040E050E00E949424605D8C
:101B2000F40161934F01C801B7012AE030E040E0C1
:101B300050E00E949424C901DA017C018D01B39424
:101B4000BA1428F33A2D3695EA2DF0E03197EC0DD2
:101B5000FD1D20E006C098818081899390832F5FCE
:101B600031972317C0F3DF91CF911F910F91FF9011
:101B7000EF90DF90CF90BF90AF909F908F9008959F
:101B80006F927F928F929F92AF92BF92CF92DF928D
:101B9000EF92FF920F931F93DF93CF930F92CDB7E6
:101BA000DEB75C014B01198200E010E0CC24DD249B
:101BB000EE24FF243E010894611C711CC3010E94A5
:101BC000460C8981882361F0F501E00FF11F8083C5
:101BD0008A3019F40894E11CF11C0F5F1F4F03C0F9
:101BE0000894C11CD11CE814F90438F4043611051A
:101BF00020F488ECC816D10408F30A0D1B1DF80167
:101C0000108280E0E814F90409F481E00F90CF918C
:101C1000DF911F910F91FF90EF90DF90CF90BF90D9
:101C2000AF909F908F907F906F900895FF920F9349
:101C30001F93CF93DF93EC0186E663E00E9459087F
:101C400080E197E228EC30E0F9013197F1F7019754
:101C5000D9F70E942C1C81E061E00E94E51BFF2463
:101C60000BC08E010F0D111DC8010E94460CF8011A
:101C700080810E94BC1BF3940E94FC0B813089F38D
:101C800081E0DF91CF911F910F91FF9008951F93F5
:101C9000CF93DF93EC01162F86E663E00E9459088C
:101CA00080E197E228EC30E0F9013197F1F70197F4
:101CB000D9F7CE01612F0E94090C81E0DF91CF910D
:101CC0001F9108956F927F928F929F92AF92BF92D1
:101CD000CF92DF92EF92FF920F931F93DF93CF93F8
:101CE000CDB7DEB764970FB6F894DEBF0FBECDBF99
:101CF000C82E792ED62E8A017E010894E11CF11C93
:101D000084E1F70111928A95E9F788E00E94180BA7
:101D100088E0B8010E94290B88E00E94710B82E4E0
:101D20008A95F1F700E007C0C7010E94460C0F5FDB
:101D30000894E11CF11C0D15B8F382E48A95F1F7C3
:101D40008E010F5F1F4FED2CFF240894E108F1086E
:101D500092E4692E82E0882E912C8C0E9D1E5801F3
:101D6000AE0CBF1C3EC0F801E20FF31F90818C91B6
:101D7000981711F511962E153F05D1F40E942C1CD1
:101D800081E061E00E94E51B80E690E00E94061C75
:101D900081E061E00E94E51B8C2D972D0E94061CBE
:101DA00088E00E94820B88E00E948E0B81E036C0A2
:101DB0002F5F3F4F2D15B8F2862D8A95F1F790E0F1
:101DC00008C0F801EA0FFB1FA80DB91D8C91808394
:101DD0009F5FA92FB0E0AE15BF059CF3C5010E941F
:101DE000460C88E00E94610B882339F48C2D972DD6
:101DF0009C01D90120E030E0DDCF0E942C1C81E065
:101E000061E00E94E51B8EE690E00E94061C88E0DF
:101E10000E94820B88E00E948E0B80E064960FB6D1
:101E2000F894DEBF0FBECDBFCF91DF911F910F9110
:101E3000FF90EF90DF90CF90BF90AF909F908F90EA
:101E40007F906F900895CF93DF93EC0186E663E077
:101E50000E94100880E197E228EC30E0F901319708
:101E6000F1F70197D9F7A4EDBFE0FD010190002043
:101E7000E9F7E55DFF40CD016E2F0E94090C87E771
:101E800090E067E040E157E20E94620E813009F085
:101E900079C0CE0163E070E00E94C00D0E942C1C4E
:101EA00081E061E00E94E51B8FE790E00E94061C44
:101EB00082E061E00E94E51BCE010E94061C8AE8D8
:101EC00090E0BE014BE050E00E94B706009711F48D
:101ED00081E06DC086E990E0BE0145E050E00E94DF
:101EE000B706009711F482E062C08CE990E0BE0171
:101EF00048E050E00E94B706009711F483E057C015
:101F000085EA90E0BE0146E050E00E94B7060097E7
:101F100011F484E04CC08CEA90E0BE0149E050E04E
:101F20000E94B706009711F485E041C086EB90E06F
:101F3000BE014AE050E00E94B706009711F486E027
:101F400036C081EC90E0BE0149E050E00E94B70647
:101F5000009711F487E02BC08BEC90E0BE014CE0C1
:101F600050E00E94B706009711F488E020C088ED89
:101F700090E0BE0147E050E00E94B706009769F488
:101F800089E015C00E942C1C81E061E00E94E51BE5
:101F900080EE90E00E94061C09C080E197E228ECE8
:101FA00030E0F9013197F1F70197D9F780E0DF913F
:101FB000CF91089586E663E00E94100880E197E2E1
:101FC00028EC30E0F9013197F1F70197D9F7A8E84B
:101FD000B0E1FD0101900020E9F7E958F041CD01A1
:101FE0006E2F0E94090C8AE391E062E048EE53E014
:101FF0000E94620E882361F40E942C1C81E061E043
:102000000E94E51B8DE391E00E94061C80E008958C
:1020100080E197E228EC30E0F9013197F1F7019780
:10202000D9F781E00895EF92FF920F931F93DF930A
:10203000CF9300D000D00F92CDB7DEB78C017A01DC
:102040001A821B821C821D82198270E080E090E05F
:10205000AE014E5F5F4F9E012F5F3F4F0E94580DB4
:1020600086E663E00E94100880E197E228EC30E009
:10207000F9013197F1F70197D9F7ACE4B0E1FD012F
:1020800001900020E9F7ED54F041CD016E2F0E9440
:10209000090CC8016EE00E94090C81EA91E062E03F
:1020A0000E94090C84EA91E067E040E157E20E9457
:1020B000620E813009F046C0C70163E070E00E9403
:1020C000C00D0E942C1C81E061E00E94E51B8CEA9F
:1020D00091E00E94061C82E061E00E94E51BC701BE
:1020E0000E94061C80E197E228EC30E0F90131976C
:1020F000F1F70197D9F7ABE5B0E1FD0101900020C0
:10210000E9F7EC55F041CD016E2F0E94090CC80192
:102110006EE00E94090C8CE20E942C0CCE0102960B
:1021200069810E94090C81EA91E062E00E94090C39
:102130008AE391E062E040EE5EE20E94620E882354
:10214000B1F409C00E942C1C81E061E00E94E51BF3
:102150008CEB91E008C00E942C1C81E061E00E94A1
:10216000E51B8EE192E00E94061C80E091C080E1B8
:1021700097E228EC30E0F9013197F1F70197D9F7B0
:10218000AAE6B0E1FD0101900020E9F7EB56F0412D
:10219000CD016E2F0E94090CC8016EE00E94090C4F
:1021A00081EA91E062E00E94090C8AE391E062E03A
:1021B00048EE53E00E94620E882349F40E942C1CD2
:1021C00081E061E00E94E51B81E792E0CCCF80E1F5
:1021D00097E228EC30E0F9013197F1F70197D9F750
:1021E000A9E7B0E1FD0101900020E9F7EA57F041CD
:1021F000CD016E2F0E94090C8AE391E062E048EE67
:1022000053E00E94620E882349F40E942C1C81E056
:1022100061E00E94E51B84EC92E0A5CF80E197E2AB
:1022200028EC30E0F9013197F1F70197D9F7A8E8E8
:10223000B0E1FD0101900020E9F7E958F041CD013E
:102240006E2F0E94090CC8016EE00E94090C81EA01
:1022500091E062E00E94090C8AE391E062E048E5C7
:102260005BE10E94620E882349F40E942C1C81E0ED
:1022700061E00E94E51B8DE391E075CF80E197E27C
:1022800028EC30E0F9013197F1F70197D9F781E0B7
:102290000F900F900F900F900F90CF91DF911F91A3
:1022A0000F91FF90EF9008958F929F92AF92BF92FF
:1022B000CF92DF92EF92FF920F931F93DF93CF9312
:1022C000CDB7DEB728970FB6F894DEBF0FBECDBFEF
:1022D000082F162F4A011C821B8219821D821E8222
:1022E0001F8218861A82682F70E080E090E0AE01AD
:1022F0004D5F5F4F9E012F5F3F4F0E94580D612F32
:1023000070E080E090E0AE014B5F5F4F9E012E5F7A
:102310003F4F0E94580D86E663E00E94100880E15E
:1023200097E228EC30E0F9013197F1F70197D9F7FE
:10233000AFE1B0E1FD0101900020E9F73197EA1B20
:10234000FB0BCD016E2F0E94090CCE010396698113
:102350000E94090C8CE20E942C0CCE0105966A8129
:102360000E94090C81EA91E062E00E94090C8AE374
:1023700091E062E048EE53E00E94620E882361F42F
:102380000E942C1C81E061E00E94E51B8EE293E03C
:102390000E94061C80E06FC080E197E228EC30E0EC
:1023A000F9013197F1F70197D9F7AEE2B0E1FD01FC
:1023B00001900020E9F7EF52F041CD016E2F0E940D
:1023C000090C80E197E228EC30E0F9013197F1F750
:1023D0000197D9F7212F30E088EE93E0289F700114
:1023E000299FF00C389FF00C112410E03DE3A32E40
:1023F00030E1B32E28ECC22ED12C31C0F501019072
:102400000020E9F7EE53F0418DE390E16E2F0E943A
:10241000090C80E197E2F6013197F1F70197D9F7BE
:102420008AE893E065E0A7010E94620E8130B1F472
:10243000C4016AE070E00E94C00D0E942C1C81E083
:1024400061E00E94E51B80E993E00E94061C82E0A7
:1024500061E00E94E51BC4010E94061C1F5F10176B
:1024600068F280E197E228EC30E0F9013197F1F76A
:102470000197D9F781E028960FB6F894DEBF0FBE1A
:10248000CDBFCF91DF911F910F91FF90EF90DF9023
:10249000CF90BF90AF909F908F900895CF92DF9292
:1024A000EF92FF920F931F93DF93CF93CDB7DEB7D9
:1024B0002B970FB6F894DEBF0FBECDBFC82E7B01A1
:1024C0008A01D22E0E949E1B0E942C1C0E949B0BF4
:1024D000DE011196E0E0F1E18BE001900D92815078
:1024E000E1F7CE0101960E94620C86E663E041E0CE
:1024F0000E947F0786E663E00E94100880E197E271
:1025000028EC30E0F9013197F1F70197D9F7AEE304
:10251000BFE0FD0101900020E9F73197EA1BFB0BBA
:10252000CD016E2F0E94090C8AE391E062E048EE33
:1025300053E00E94620E882349F40E942C1C81E023
:1025400061E00E94E51B8AEA93E04CC180E197E2DA
:1025500028EC30E0F9013197F1F70197D9F7ADE4B4
:10256000BFE0FD0101900020E9F7EE54FF40CD01EE
:102570006E2F0E94090C80E794E162E070E00E94F7
:10258000C00D0E942C1C81E061E00E94E51B80E7E9
:1025900094E10E94061C80E197E228EC30E0F9010A
:1025A0003197F1F70197D9F7ABE6BFE0FD01019054
:1025B0000020E9F7EC56FF40CD016E2F0E94090C78
:1025C000C8016D2D0E94090C81EA91E062E00E9431
:1025D000090C8AE391E062E048EE53E00E94620E4B
:1025E000882349F40E942C1C81E061E00E94E51BD5
:1025F00085EE93E0F7C080E197E228EC30E0F90146
:102600003197F1F70197D9F7AAE7BFE0FD010190F3
:102610000020E9F7EB57FF40CD016E2F0E94090C17
:10262000C70164E00E94090C81EA91E062E00E9427
:10263000090C8AE391E062E048EE53E00E94620EEA
:10264000882349F40E942C1C81E061E00E94E51B74
:1026500088E194E0C7C080E197E228EC30E0F9011E
:102660003197F1F70197D9F7A9E8BFE0FD01019093
:102670000020E9F7EA58FF40CD016E2F0E94090CB7
:102680008AE391E062E048EE53E00E94620E882304
:1026900049F40E942C1C81E061E00E94E51B8FE45C
:1026A00094E0A0C080E197E228EC30E0F901319796
:1026B000F1F70197D9F7A8E9BFE0FD0101900020EB
:1026C000E9F7E959FF40CD016E2F0E94090C8AE31A
:1026D00091E062E048EE53E00E94620E882349F4E4
:1026E0000E942C1C81E061E00E94E51B82E994E0DD
:1026F00079C080E197E228EC30E0F9013197F1F7F9
:102700000197D9F781E0C81609F04FC0A7EABFE0EA
:10271000FD0101900020E9F7E85AFF40CD016E2F3E
:102720000E94090C8AE391E062E048EE53E00E94C7
:10273000620E882349F40E942C1C81E061E00E9413
:10274000E51B82ED94E04EC080E197E228EC30E09A
:10275000F9013197F1F70197D9F7A6EBBFE0FD0139
:1027600001900020E9F7E75BFF40CD016E2F0E944A
:10277000090C8AE391E062E048EE53E00E94620EA9
:10278000882349F40E942C1C81E061E00E94E51B33
:1027900080E095E027C080E197E228EC30E0F90185
:1027A0003197F1F70197D9F773C0A5ECBFE0FD01B0
:1027B00001900020E9F7E65CFF40CD016E2F0E94FA
:1027C000090C8AE391E062E048EE53E00E94620E59
:1027D000882361F40E942C1C81E061E00E94E51BCB
:1027E00080E395E00E94061C80E053C080E197E200
:1027F00028EC30E0F9013197F1F70197D9F7A6EB12
:10280000BFE0FD0101900020E9F7E75BFF40CD014B
:102810006E2F0E94090C8AE391E062E048EE53E0DB
:102820000E94620E882349F40E942C1C81E061E022
:102830000E94E51B87E695E0D5CF80E197E228EC82
:1028400030E0F9013197F1F70197D9F7AEE2B0E145
:10285000FD0101900020E9F7EF52F041CD016E2F0C
:102860000E94090C80E197E228EC30E0F9013197F1
:10287000F1F70197D9F786E663E00E94590880E1F5
:1028800097E228EC30E0F9013197F1F70197D9F799
:1028900081E02B960FB6F894DEBF0FBECDBFCF916F
:1028A000DF911F910F91FF90EF90DF90CF900895EF
:1028B000EF92FF920F931F93082FF62EE42E0E94A3
:1028C000BC0980ED0E94B50984E00E94B509802F03
:1028D0006AE00E94612416E0819FC0011124800FEC
:1028E0000E94B5098F2D6AE00E946124819FC0017A
:1028F00011248F0D0E94B5098E2D6AE00E9461247B
:10290000819FC00111248E0D0E94B5090E94C20949
:102910001F910F91FF90EF900895EF92FF920F9308
:102920001F93E82EF62E042F0E94BC0980ED0E9412
:10293000B50980E00E94B509802F6AE00E946124F9
:1029400016E0819FC0011124800F0E94B5098F2DD0
:102950006AE00E946124819FC00111248F0D0E94B2
:10296000B5098E2D6AE00E946124819FC001112467
:102970008E0D0E94B5090E94C2091F910F91FF9010
:10298000EF900895AF92BF92CF92DF92EF92FF92B5
:102990000F931F937C016B015A010E94BC0980EDCB
:1029A0000E94B50984E00E94B5090E94C2090E94F4
:1029B000BC0981ED0E94B50981E00E94CB09182F66
:1029C00081E00E94CB09082F80E00E94CB09912F63
:1029D00092959F702AEF3FEF929F902D1124910FB7
:1029E000F7019083902F92959F70929F902D1124C4
:1029F000900FF6019083982F92959F70929F902D43
:102A00001124980FF50190830E94C2091F910F9124
:102A1000FF90EF90DF90CF90BF90AF900895AF926E
:102A2000BF92CF92DF92EF92FF920F931F935C01C0
:102A30006B017A010E94BC0980ED0E94B50980E01B
:102A40000E94B5090E94C2090E94BC0981ED0E9442
:102A5000B50981E00E94CB09182F81E00E94CB09C3
:102A6000082F80E00E94CB09912F92959F702AEF4A
:102A70003FEF929F902D1124910FF7019083902F9B
:102A800092959F70929F902D1124900FF601908344
:102A9000982F92959F70929F902D1124980FF50179
:102AA00090830E94C2091F910F91FF90EF90DF90D9
:102AB000CF90BF90AF9008950E94C5090E94BC09B5
:102AC00080ED0E94B50987E00E94B50980E00E9470
:102AD000B5090E94C20988EC90E00197F1F70895CA
:102AE0000F931F93082F162F0E94BC09812F0E945D
:102AF000B509802F0E94B5090E94BC09812F816011
:102B00000E94B50981E00E94CB09182F0E94C209DA
:102B1000812F1F910F910895FF920F931F93182FEC
:102B2000062FF42E0E94BC09802F0E94B509812F28
:102B30000E94B5098F2D0E94B5090E94C20980E349
:102B400095E70197F1F71F910F91FF9008950E946B
:102B5000C50908958F929F92AF92BF92DF92EF9234
:102B6000FF920F931F93DF93CF930F92CDB7DEB7F2
:102B70008C015B011982FF24DD24EE244E010894B0
:102B8000811C911CC4010E94460C8981882349F054
:102B9000F801EF0DF11D80838A3009F4E394F3947A
:102BA00001C0D3942E2D30E02A153B0530F483E686
:102BB0008F1518F0E7ECED1528F70F0D111DF80132
:102BC000108280E02A153B0509F481E00F90CF9137
:102BD000DF911F910F91FF90EF90DF90BF90AF902A
:102BE0009F908F9008957F928F929F92AF92BF9205
:102BF000CF92DF92EF92FF920F931F93DF93CF93C9
:102C0000CDB7DEB764970FB6F894DEBF0FBECDBF69
:102C1000C82E792ED62E8E010F5F1F4F84E1F8014A
:102C200011928A95E9F784E0BA010E94290B84E0A9
:102C30000E94710BFF2406C0C8010E94460CF39449
:102C40000F5F1F4FFD14C0F33FC0F701E20FF31FEA
:102C500090818C91981771F5119620173107E1F446
:102C60000E942C1C81E061E00E94E51B81EA95E056
:102C70000E94061C0E942C1C81E061E00E94E51B62
:102C80008C2D972D0E94061C84E00E94820B84E00C
:102C90000E948E0B81E045C02F5F3F4F2D15A8F29B
:102CA00009C0F701EA0FFB1FA80DB91D8C918083A5
:102CB0009F5F01C090E0A92FB0E0A017B1078CF38F
:102CC000C5010E94460C10C07E010894E11CF11C55
:102CD0000D2D10E00150104082E0882E912C8C0EBA
:102CE0009D1E5701A00EB11E84E00E94610B882337
:102CF00039F48C2D972D9C01D90120E030E0CECF06
:102D00000E942C1C81E061E00E94E51B8FEA95E0A7
:102D10000E94061C84E00E94820B84E00E948E0BBD
:102D200080E064960FB6F894DEBF0FBECDBFCF91A2
:102D3000DF911F910F91FF90EF90DF90CF90BF90A8
:102D4000AF909F908F907F9008951F930E94FC0BEF
:102D5000182F813011F080E075C080917515813099
:102D600081F580917615909177158A5A9A4E0E9436
:102D7000460C2091761530917715F901EA5AFA4EF2
:102D800080818D3019F02E313105A0F0F901EA5A19
:102D9000FA4E108249E001C04F5F842F90E0821705
:102DA0009307D0F31092771510927615109275153F
:102DB00082E048C02F5F3F4F309377152093761500
:102DC00040C080917415813069F488EB95E067E02C
:102DD00040E157E20E94F31510927415813089F595
:102DE00083E030C086E595E10E94460C809156153F
:102DF0008B3299F487E595E10E94460C8091571536
:102E0000893449F41093751582E090E0909377151A
:102E10008093761516C08BE20EC0843581F487E569
:102E200095E10E94460C80915715883619F410934D
:102E3000741507C084E50E94BC1B809157150E9441
:102E4000BC1B81E01F9108952F923F924F925F9299
:102E50006F927F928F929F92AF92BF92CF92DF92AA
:102E6000EF92FF920F931F93DF93CF93CDB7DEB70F
:102E70002E970FB6F894DEBF0FBECDBF9A87898715
:102E80006B875D874C872E871C821D821E821F8266
:102E900019821A821B82822F90E002962C016624EE
:102EA00057FC6094762C94E0292E312C2C0E3D1E7C
:102EB000E5E2FCE001900020E9F7E652FC4085E203
:102EC0009CE06E2F0E94090C80EC95E062E042E3EA
:102ED00050E00E94F31588E893E1E8ECF0E03197C8
:102EE000F1F70197D1F7EBEBFCE001900020E9F757
:102EF000EC5BFC408BEB9CE06E2F0E94090C82E2A5
:102F00000E942C0C89859A856B850E94090C82E2AF
:102F10000E942C0C83EC95E065E00E94090C89EC82
:102F200095E067E040E157E20E94F315888780E270
:102F30009EE4E8ECF0E03197F1F70197D1F7EFE18B
:102F4000FDE001900020E9F7E052FD408FE19DE0B7
:102F50006E2F0E94090CD301C20152016D01C30101
:102F6000B201EE242AE030E040E050E00E949424D8
:102F7000C901DA01BC01CD01E39461157105810538
:102F8000910581F781014101FF2417C0B501C601F8
:102F90002AE030E040E050E00E949424605DD401DB
:102FA0006D934D01B501C6012AE030E040E050E0EC
:102FB0000E94942459016A01F394FE1438F33E2DC3
:102FC0003695EE2DF0E03197E20DF31D20E008C0BC
:102FD000D8019C9180818D938D0190832F5F3197D3
:102FE0002317B0F3C1016E2D0E94090C81ED95E00D
:102FF00062E00E94090C80EC95E062E040E157E25B
:103000000E94F315182F80E197E2E8ECF0E0319789
:10301000F1F70197D1F78C859D856E850E94090C8B
:1030200081ED95E062E00E94090C80ED97E0019748
:10303000F1F784ED95E067E048E55BE10E94F31568
:10304000282F80E395E7E8ECF0E03197F1F701975E
:10305000D1F789818F5F8983B885B13021F4113030
:1030600011F4213021F08981833008F421CF898146
:10307000833071F4222361F41A820E942C1C81E0B7
:1030800061E00E94E51B8CED95E00E94061C02C0E9
:1030900081E08A838A812E960FB6F894DEBF0FBE38
:1030A000CDBFCF91DF911F910F91FF90EF90DF90F7
:1030B000CF90BF90AF909F908F907F906F905F90D8
:1030C0004F903F902F900895FF920F931F93CF93AF
:1030D000DF938C01F62EC9E1DEE0FE0101900020B5
:1030E000E9F7EA51FE40CE016E2F0E94090C80ECF8
:1030F00095E062E048EE53E00E94F315882349F41E
:103100000E942C1C81E061E00E94E51B85EF95E0A8
:103110002FC0DE01D297FD0101900020E9F7E85EA3
:10312000FD40CD016E2F0E94090CC8016F2D0E9439
:10313000090C81E396E06AE00E94090C80E197E2C5
:1031400028EC30E0F9013197F1F70197D9F780ECDD
:1031500095E062E040E157E20E94F315882361F4B4
:103160000E942C1C81E061E00E94E51B8CE396E04C
:103170000E94061C80E00AC080E197E228EC30E063
:10318000F9013197F1F70197D9F781E0DF91CF91FC
:103190001F910F91FF900895A5E2BCE0FD01019001
:1031A0000020E9F7E652FC40CD016E2F0E94090C89
:1031B00080EC95E062E048EE53E00E94F31580E178
:1031C00097E228EC30E0F9013197F1F70197D9F750
:1031D000A7E5BCE0FD0101900020E9F7E855FC40BF
:1031E000CD016E2F0E94090C80EC95E062E048EE64
:1031F00053E00E94F315882349F40E942C1C81E0BF
:1032000061E00E94E51B80E896E026C080E197E23D
:1032100028EC30E0F9013197F1F70197D9F7A5EBE8
:10322000BDE0FD0101900020E9F7E65BFD40CD0126
:103230006E2F0E94090C80EC95E062E048EE53E0AE
:103240000E94F315882361F40E942C1C81E061E048
:103250000E94E51B8CEB96E00E94061C80E008951E
:1032600080E197E228EC30E0F9013197F1F701971E
:10327000D9F781E00895FF920F931F938C01F62EEA
:10328000A3E8BDE0FD0101900020E9F7E458FD400E
:10329000CD016E2F0E94090C82E20E942C0CC80105
:1032A0006F2D0E94090C85EF96E063E00E94090CE7
:1032B00080EC95E062E048EE53E00E94F31588232D
:1032C00061F40E942C1C81E061E00E94E51B89EF03
:1032D00096E00E94061C80E00AC080E197E228EC9C
:1032E00030E0F9013197F1F70197D9F781E01F91AB
:1032F0000F91FF900895CF92DF92EF92FF920F937C
:103300001F93DF93CF93CDB7DEB72B970FB6F8940B
:10331000DEBF0FBECDBF8C01D62E7A01C22EADE529
:10332000BBE0FD0101900020E9F7EE55FB40CD0127
:103330006E2F0E94090CE2EFF4E184E6DF011D929A
:103340008A95E9F7CF0165E070E00E94AA1580E256
:103350009EE428EC30E0F9013197F1F70197D9F7B5
:10336000DE011196EBE0F1E18BE001900D928150CE
:10337000E1F7CE0101960E94620CAFE8BBE0FD01CF
:1033800001900020E9F7E059FB40CD016E2F0E942B
:10339000090C82E20E942C0CC8016D2D0E94090CC0
:1033A00084E297E063E00E94090CC7016C2D0E9443
:1033B000090C85EF96E063E00E94090C80E29EE430
:1033C00028EC30E0F9013197F1F70197D9F780EC5B
:1033D00095E062E040E157E20E94F315813059F038
:1033E0000E942C1C81E061E00E94E51B88E297E0CE
:1033F0000E94061C80E02B960FB6F894DEBF0FBE2D
:10340000CDBFCF91DF911F910F91FF90EF90DF9093
:10341000CF900895DF93CF93CDB7DEB72B970FB63C
:10342000F894DEBF0FBECDBF0E949B0B0E949E1B77
:103430000E942C1CDE011196E6E1F1E18BE0019087
:103440000D928150E1F7CE0101960E94620CA9EF26
:10345000BAE0FD0101900020E9F7EA5FFA40CD01F2
:103460006E2F0E94090C8EE497E069E040E157E27C
:103470000E94F315882349F40E942C1C81E061E02E
:103480000E94E51B88E597E02AC080E593EC28ECD4
:1034900030E0F9013197F1F70197D9F7CE010196A4
:1034A0000E94620CABE2BBE0FD0101900020E9F755
:1034B000EC52FB40CD016E2F0E94090C80EC95E090
:1034C00062E048EE53E00E94F315882361F40E9405
:1034D0002C1C81E061E00E94E51B81E897E00E94DE
:1034E000061C80E079C080E197E228EC30E0F90129
:1034F0003197F1F70197D9F7A5E2BCE0FD01019002
:103500000020E9F7E652FC40CD016E2F0E94090C25
:1035100080EC95E062E048EE53E00E94F3158823CA
:1035200049F40E942C1C81E061E00E94E51B81EBC4
:1035300097E0D5CF80E197E228EC30E0F9013197B0
:10354000F1F70197D9F7A3EFBBE0FD01019000204F
:10355000E9F7E45FFB40CD016E2F0E94090C80EC7F
:1035600095E062E040ED57E00E94F315882349F4AE
:103570000E942C1C81E061E00E94E51B85EE97E033
:10358000AECF80E29EE428EC30E0F9013197F1F70C
:103590000197D9F7A9E8BCE0FD0101900020E9F707
:1035A000EA58FC40CD016E2F0E94090CE2EFF4E1D5
:1035B00084E6DF011D928A95E9F7CF0165E070E0AE
:1035C0000E94AA1580E197E228EC30E0F9013197DA
:1035D000F1F70197D9F781E02B960FB6F894DEBF8B
:1035E0000FBECDBFCF91DF9108951F9381E467E0B7
:1035F0000E94590881E466E00E94100881E465E0B9
:103600000E94100881E464E00E943809882311F4C4
:1036100011E011C081E463E00E943809882311F4AD
:1036200014E009C081E462E00E943809882311F4A3
:1036300017E001C010E081E466E00E94590881E4CF
:1036400067E00E94100881E465E00E94100881E4B0
:1036500064E00E943809882311F412E00FC081E46D
:1036600063E00E943809882311F415E007C081E463
:1036700062E00E943809882309F418E081E465E0DB
:103680000E94590881E467E00E94100881E466E026
:103690000E94100881E464E00E943809882311F434
:1036A00013E00FC081E463E00E943809882311F41D
:1036B00016E007C081E462E00E943809882309F41B
:1036C00019E0812F1F91089581E460EE0E940F0799
:1036D00081E464E00E94100881E463E00E94100825
:1036E00081E462E00E9410080895AE98AD98C798F2
:1036F000C698C598C49887FDC79A86FDC69A85FD69
:10370000C59A84FDC49AAF9A95E09A95F1F7AF985F
:10371000C798C698C598C49883FDC79A82FDC69A73
:1037200081FDC59A80FDC49AAF9A85E08A95F1F72C
:10373000AF9888E592E00197F1F7089584B3806E21
:1037400084BB15BA87B3806F87BB88B388BB80E220
:103750009EE40197F1F788E20E94751B8CE00E94BD
:10376000751B86E00E94751B80E80E94751B80E433
:103770009CE90197F1F70895AE98AD9AC798C6985D
:10378000C598C49887FDC79A86FDC69A85FDC59AD7
:1037900084FDC49AAF9A95E09A95F1F7AF98C798CF
:1037A000C698C598C49883FDC79A82FDC69A81FDC4
:1037B000C59A80FDC49AAF9A85E08A95F1F7AF98D3
:1037C00088E592E00197F1F70895DF93CF9300D059
:1037D00000D0CDB7DEB790E8998390EC9A8394E956
:1037E0009B8394ED9C836150FE01E80FF11D808165
:1037F000860F0E94751B80E29EE40197F1F70F90FF
:103800000F900F900F90CF91DF9108951F93CF935A
:10381000DF93EC0110E003C00E94BC1B1F5FFE01A0
:10382000E10FF11D80818823B9F7DF91CF911F91BE
:1038300008950F931F93CF93DF93062FEC0110E0B1
:1038400004C089910E94BC1B1F5F1017D0F3DF9149
:10385000CF911F910F91089581E00E94751B85E023
:103860008A95F1F780E29EE40197F1F708950F93AE
:103870001F93CF93DF938B01883090F4880F880FCC
:10388000880F805C0E94751BC0E0D0E0F801EC0F4F
:10389000FD1F80810E94BC1B2196C830D105B1F765
:1038A000DF91CF911F910F910895CF93DF93EC019A
:1038B000888182958F708A3010F0895C01C0805DAC
:1038C0000E94BC1B88818F708A3010F0895C01C017
:1038D000805D0E94BC1BDF91CF910895BF92CF9273
:1038E000DF92EF92FF920F93DF93CF93CDB7DEB7C6
:1038F00028970FB6F894DEBF0FBECDBFB62E9E013F
:103900002F5F3F4F38872F8326E0EF81F885119294
:103910002A95E9F7BE016F5F7F4F4AE050E00E94B1
:10392000C50600E06E010894C11CD11C09C00F5FE0
:103930008B2D602F0E94E51BF70180810E94BC1B2C
:103940007601E00EF11CF7018081882381F728962B
:103950000FB6F894DEBF0FBECDBFCF91DF910F91B0
:10396000FF90EF90DF90CF90BF9008952F923F92FD
:103970004F925F926F927F929F92AF92BF92CF923F
:10398000DF92EF92FF920F931F93CF93DF931C016F
:10399000662321F402E0CAE0D0E009C0613021F4DE
:1039A00003E0C4E6D0E003C000E0C0E0D0E0710175
:1039B00010E00F2EF0E0AF2EF0E0BF2EF0E0CF2EA3
:1039C000F0E0DF2EF02D1FC0F70181917F0190E024
:1039D000C097C89FB001C99F700DD89F700D11246A
:1039E00080E090E00E9449049B01AC01C601B50152
:1039F0000E94F2015B016C01CE016AE070E00E945E
:103A00006D24EB011F5F1017F8F2902E0F2EF0E0DF
:103A1000EF2EF0E0FF2EF0E00F2FF0E01F2FF02D43
:103A2000CAE0D0E0892D90E036E0432E512C480EBC
:103A3000591E22E0622E712C680E791E22C0E615F6
:103A4000F705F1F0E20DF31D808190E0C0978C9FA7
:103A5000B0018D9F700D9C9F700D112480E090E04F
:103A60000E9449049B01AC01C801B7010E94F20108
:103A70007B018C01CE016AE070E00E946D24EB01B5
:103A80009394E92DF0E04E165F06CCF6C801B7011D
:103A900020E030E040E752E40E9419039B01AC01B2
:103AA000C601B5010E94F201DF91CF911F910F91E4
:103AB000FF90EF90DF90CF90BF90AF909F907F905E
:103AC0006F905F904F903F902F9008954F925F922C
:103AD0006F927F928F929F92AF92BF92CF92DF921E
:103AE000EF92FF920F931F93DF93CF93CDB7DEB783
:103AF00027970FB6F894DEBF0FBECDBF4B015C0118
:103B000029013A016E010894C11CD11C87E0F6011D
:103B100011928A95E9F7C501B4010E944900DC01C0
:103B2000CB017C01B6014AE050E00E94C506C60107
:103B300062E00E94191C8EE20E94BC1B00E010E0B3
:103B4000C801B7010E9449049B01AC01C501B40141
:103B50000E94C10120E034E244E759E40E941F02C0
:103B60000E9449007B018C01CB01B6014AE050E084
:103B70000E94C506CC240DC0C801B7012AE030E080
:103B800040E050E00E949424C901DA017C018D01DB
:103B9000C394E114F1040105110571F71C2D04C053
:103BA00080E30E94BC1B1F5F1630D0F36E010894A7
:103BB000C11CD11CC6010E94061C8CE20E94BC1BC9
:103BC000809195150E94BC1BC301B2010E94F503B0
:103BD000DC01CB01B6014AE050E00E94C506C301FA
:103BE000B2010E944900DC01CB017C0162E00E942D
:103BF0006E1C8EE20E94BC1B00E010E0C801B70101
:103C00000E9449049B01AC01C301B2010E94C101A1
:103C100020E034E244E759E40E941F020E94490078
:103C20007B018C01CB01B6014AE050E00E94C50641
:103C3000CC240DC0C801B7012AE030E040E050E0DC
:103C40000E949424C901DA017C018D01C394E1141E
:103C5000F1040105110571F71C2D04C080E30E94D9
:103C6000BC1B1F5F1630D0F3CE0101960E94061CCC
:103C70008CE20E94BC1B8091A2150E94BC1B81E0BB
:103C800027960FB6F894DEBF0FBECDBFCF91DF9160
:103C90001F910F91FF90EF90DF90CF90BF90AF906A
:103CA0009F908F907F906F905F904F9008956F924C
:103CB0007F928F929F92AF92BF92CF92DF92EF92BC
:103CC000FF920F931F93DF93CF93CDB7DEB7669725
:103CD0000FB6F894DEBF0FBECDBF5C016B01198239
:103CE0008AE0FE013396DF01982F1D929A95E9F73D
:103CF0009E01235F3F4FD9011D928A95E9F71A82F1
:103D000042E0E42EF12CEC0EFD1E662463947E2E20
:103D10008F2ED901922E0B2F62C0C7010E94460C34
:103D20008A81843209F05BC0C7010E94460CC7013A
:103D30000E94460CC7010E94460CC7010E94460C17
:103D4000C7010E94460C88E795E164E179E045E00F
:103D500050E00E94B706009709F041C0698215E063
:103D6000C7010E94460C1F5FE12FF0E0E958FA4EB0
:103D700080818A30A9F780918915813431F08AE1F8
:103D800099E00E94061C80E02FC0EBE8F5E1872D4A
:103D9000982DDC0181918D9385E1E439F807D1F705
:103DA0003396892D902FDC0181918D9395E1E13A35
:103DB000F907D1F7872D982D60E00E94B61CD50138
:103DC0006D937D938D939C931397892D902F61E034
:103DD0000E94B61CF601608371838283938389817C
:103DE000882309F49ACF81E066960FB6F894DEBF77
:103DF0000FBECDBFCF91DF911F910F91FF90EF903C
:103E0000DF90CF90BF90AF909F908F907F906F90FA
:103E100008950E949E1B83E19FE00E94620C81E056
:103E2000089582E660E00E9410088AE18A95F1F721
:103E300082E660E00E94590881E090E008951F92B8
:103E40000F920FB60F9211242F933F934F935F93CE
:103E50006F937F938F939F93AF93BF93EF93FF9352
:103E600080911E0F813059F414BC88B7806488BFDC
:103E700084E667E00E94100810921E0F41C084B5CE
:103E80008093DC151092DD1588B7806488BF84E6C6
:103E900067E00E9459086091DC157091DD1580E0A3
:103EA00090E00E94490420E030E040E053E40E94AA
:103EB0001F020E944900DC01CB019093DF15809323
:103EC000DE156AE370E00E946D247093E115609343
:103ED000E0150E942C1C8091E0159091E11562EE96
:103EE00075E14AE050E00E94C50681E062E00E9470
:103EF000E51B82EE95E10E94061C81E080931E0F77
:103F00008AB780688ABFFF91EF91BF91AF919F916F
:103F10008F917F916F915F914F913F912F910F9072
:103F20000FBE0F901F9018950E94B70B0E949E1B0A
:103F300082E660E041E00E947F0782E660E00E9446
:103F400059088BB780688BBF85B7846085BF8AB7F7
:103F500080688ABF789484E667E041E00E947F072A
:103F60000895DC016B30F1F48C918033D9F4119613
:103F70008C9111978133B1F412968C9112978053E2
:103F8000833080F420E030E0FD01E20FF31F8081F8
:103F900080538A3038F42F5F3F4F2B303105A1F723
:103FA00081E0089580E00895AF92BF92CF92DF92B2
:103FB000EF92FF920F931F93CF93DF935B016C01FE
:103FC000EA01EE24FF248E010E0D1F1DB501C6016E
:103FD0002AE030E040E050E00E949424605DF80167
:103FE0006083B501C6012AE030E040E050E00E9465
:103FF000942459016A010894E11CF11CF4E0EF16C5
:10400000F10409F798818B8188839B8399818A8148
:1040100089839A83DF91CF911F910F91FF90EF9049
:10402000DF90CF90BF90AF9008950E942C1CA9EB19
:10403000B3E1FD0101900020E9F7EA5BF341CD0116
:104040006E2F0E94090C80E197E228EC30E0F90124
:104050003197F1F70197D9F781E008950E942C1C60
:10406000ABE9B3E1FD0101900020E9F7EC59F34120
:10407000CD016E2F0E94090C80E197E228EC30E020
:10408000F9013197F1F70197D9F781E00895CF93BE
:10409000DF93EC010E942C1C8981813049F4A5E05A
:1040A000B3E1FD0101900020E9F7E650F34108C0BB
:1040B000A1E4B3E1FD0101900020E9F7E254F341EE
:1040C000CD016E2F0E94090C8881813049F4A3E252
:1040D000B3E1FD0101900020E9F7E452F34108C08B
:1040E000AFE5B3E1FD0101900020E9F7E056F341AF
:1040F000CD016E2F0E94090C80E197E228EC30E0A0
:10410000F9013197F1F70197D9F780E0DF91CF916D
:104110000895CF93DF93EC0188818130B9F40E9438
:104120002C1CA1E5B2E1FD0101900020E9F7E25568
:10413000F241CD016E2F0E94090C80E197E228EC3C
:1041400030E0F9013197F1F70197D9F78981813092
:10415000B9F40E942C1CAFE6B2E1FD0101900020F1
:10416000E9F7E057F241CD016E2F0E94090C80E182
:1041700097E228EC30E0F9013197F1F70197D9F790
:104180008A818130B9F40E942C1CADE8B2E1FD01B6
:1041900001900020E9F7EE58F241CD016E2F0E9408
:1041A000090C80E197E228EC30E0F9013197F1F752
:1041B0000197D9F780E0DF91CF910895FF920F9397
:1041C0001F93DF93CF930F92CDB7DEB78C01F62EFE
:1041D00019820E94B11F89838981882311F10E946D
:1041E0002C1CADE7B3E1FD0101900020E9F7EE578B
:1041F000F341CD016E2F0E94090CC8016F2D0E9462
:10420000090C8BE30E942C0C8DE00E942C0C80E3A7
:1042100095E728EC30E0F9013197F1F70197D9F7EC
:1042200081E00F90CF91DF911F910F91FF90089542
:10423000CF92DF92EF92FF920F931F93DF93CF9372
:104240000F92CDB7DEB78C01D62E7A01C22E0E9416
:10425000B11F89838981882381F1E114F10469F117
:104260000E942C1CABEAB2E1FD0101900020E9F7AD
:10427000EC5AF241CD016E2F0E94090C82E20E949D
:104280002C0CC8016D2D0E94090C82E20E942C0C9E
:104290008DE00E942C0CC7016C2D0E94090C8AE154
:1042A0000E942C0C8FEF9FEF28EC30E0F901319742
:1042B000F1F70197D9F781E001C080E00F90CF912D
:1042C000DF911F910F91FF90EF90DF90CF900895B5
:1042D0000F931F93DF93CF9300D000D0CDB7DEB7FD
:1042E0008C01DC018C918130A1F50E942C1CA9EC81
:1042F000B2E1FD0101900020E9F7EA5CF241CD0155
:104300006E2F0E94090CD8011196EC918FE0E89F66
:10431000F0011124E952FC4EDF010D900020E9F775
:104320001197AE1BBF0BCF016A2F0E94090C8FEFB4
:104330009FEF28EC30E0F9013197F1F70197D9F7B9
:10434000D8011296ED91FC9113978081282F30E0CF
:1043500041C081E0809307160E942C1CA7EEB2E1B9
:10436000FD0101900020E9F7E85EF241CD016E2FDA
:104370000E94090CF801648170E080E090E08E01F9
:104380000F5F1F4FA8010E94D41FC80164E00E9464
:10439000090C8DE00E942C0C8FEF9FEF28EC30E091
:1043A000F9013197F1F70197D9F760913A167091B9
:1043B0003B1688E096E10E94191C80E593EC28ECFE
:1043C00030E0F9013197F1F70197D9F7109207160C
:1043D00021E030E0C9010F900F900F900F90CF9126
:1043E000DF911F910F9108950E942C1C8FE19FE097
:1043F0000E94620CA3E4B1E1FD0101900020E9F705
:10440000E454F141CD016E2F0E94090CA3E3B2E107
:10441000FD0101900020E9F7E453F241CD016E2F38
:104420000E94090CA7EFB1E1FD0101900020E9F71E
:10443000E85FF141CD016E2F0E94090CADE9B1E1B9
:10444000FD0101900020E9F7EE59F141CD016E2FF9
:104450000E94090C80E29EE428EC30E0F9013197DB
:10446000F1F70197D9F70E942C1CAFE7B1E1FD01EC
:1044700001900020E9F7E058F141CD016E2F0E9434
:10448000090C80E395E728EC30E0F9013197F1F76A
:104490000197D9F70E942C1CA5E1B2E1FD01019022
:1044A0000020E9F7E651F241CD016E2F0E94090C80
:1044B00080E395E728EC30E0F9013197F1F70197B7
:1044C000D9F70E942C1CABEBB1E1FD01019000205B
:1044D000E9F7EC5BF141CD016E2F0E94090C80E3FE
:1044E00095E728EC30E0F9013197F1F70197D9F71A
:1044F00081E00895C4980E94A90A8FEF0E94A90A3A
:10450000C49A08951F93162FC49880620E94A90A26
:10451000812F0E94A90AC49A1F91089580E06BE040
:104520000E948222C39A8CE291E00197F1F70895EC
:1045300080E06AE00E9482228CE291E00197F1F72C
:1045400008951F920F920FB60F9211241F932F936D
:104550003F934F935F936F937F938F939F93AF930B
:10456000BF93EF93FF93DF93CF930F92CDB7DEB757
:104570008AB780688ABF87E00E947A228983CE0149
:1045800001960E94150CC4981AE1812F8A95F1F7C3
:104590008FEF0E94A90AC49A85FF05C087E060E2F8
:1045A0000E9482221BC084FF0EC082B390E4892740
:1045B00082BB87E060E10E948222C39A812F8A95A4
:1045C000F1F7C3980BC080FF09C087E061E00E944B
:1045D0008222C49881EE0E94A90AC49A0F90CF91BA
:1045E000DF91FF91EF91BF91AF919F918F917F915B
:1045F0006F915F914F913F912F911F910F900FBE3F
:104600000F901F9018950F931F93CF93DF93EC019A
:10461000062F613210F010E01CC0C4988FEF0E948A
:10462000A90A182FC49A86FFF8CFC49881E60E9481
:10463000A90A87EE95E1BE01402F0E94AE0AC49AF6
:10464000C49882EE0E94A90AC49A87E060E40E949E
:104650008222812FDF91CF911F910F910895FF92B8
:104660000F931F938C01F62E8CE291E00197F1F7E6
:10467000C49881EE0E94A90AC49AC49880EA0E9454
:10468000A90AC80167EE75E14F2D0E94AE0AC49ACF
:10469000C39A8AE18A95F1F7C39880E090E29F156A
:1046A00008F081E01F910F91FF9008951F9381E022
:1046B0000E94E30ABB9AC398C49A82E085BF80E453
:1046C0008BBF8AB780648ABF789484EF91E028EC2E
:1046D00030E0F9013197F1F70197D9F785E066E10C
:1046E0000E94822282E061E00E94822286E066E0EF
:1046F0000E94822283E063E00E948222C4988AE2C0
:104700000E94A90A12E11093EB151093EA15109379
:10471000E9151093E8151093E71587EE95E1BC01B4
:1047200045E00E94AE0AC49AC49880E30E94A90A98
:104730001093EB151093EA151093E9151093E815F3
:104740001093E71587EE95E1BC0145E00E94AE0AA3
:10475000C49A81E160E20E94822284E06FEF0E94AD
:10476000822281E061E00E94822280E06AE00E9471
:10477000822288EE93E028EC30E0F9013197F1F7DE
:104780000197D9F71F910895DF92EF92FF920F934F
:104790001F93DF93CF9300D0CDB7DEB7F82EE62E70
:1047A000D42E82E066E00E94E51B8F2D6AE00E9415
:1047B000612490E08E010F5F1F4FB8014AE050E086
:1047C0000E94C506C8010E94061C8F2D6AE00E9447
:1047D0006124892F90E0B8014AE050E00E94C506AC
:1047E000C8010E94061C82E069E00E94E51B8E2D34
:1047F0006AE00E94612490E0B8014AE050E00E9423
:10480000C506C8010E94061C8E2D6AE00E94612424
:10481000892F90E0B8014AE050E00E94C506C80127
:104820000E94061C82E06CE00E94E51B8D2D6AE070
:104830000E94612490E0B8014AE050E00E94C50661
:10484000C8010E94061C8D2D6AE00E946124892FF8
:1048500090E0B8014AE050E00E94C506C8010E94FD
:10486000061C0F900F90CF91DF911F910F91FF9039
:10487000EF90DF900895CF93DF9312BA0E949B0BC5
:104880000E949E1B0E942C1C81E062E00E94E51B9E
:1048900080E197E228EC30E0F9013197F1F70197D8
:1048A000D9F77894C8ECD0E080E06AE27FE00E941B
:1048B000371C88E893E1FE013197F1F70197D9F7AA
:1048C000F3CF991B79E004C0991F961708F0961B47
:1048D000881F7A95C9F780950895AA1BBB1B51E1E3
:1048E00007C0AA1FBB1FA617B70710F0A61BB70B60
:1048F000881F991F5A95A9F780959095BC01CD0105
:10490000089597FB092E07260AD077FD04D0E5DF2E
:1049100006D000201AF4709561957F4F0895F6F740
:10492000909581959F4F0895A1E21A2EAA1BBB1B5B
:10493000FD010DC0AA1FBB1FEE1FFF1FA217B3076B
:10494000E407F50720F0A21BB30BE40BF50B661F81
:10495000771F881F991F1A9469F760957095809545
:1049600090959B01AC01BD01CF0108952F923F921C
:104970004F925F926F927F928F929F92AF92BF926F
:10498000CF92DF92EF92FF920F931F93CF93DF931B
:10499000CDB7DEB7CA1BDB0B0FB6F894DEBF0FBE78
:1049A000CDBF09942A88398848885F846E847D84C5
:1049B0008C849B84AA84B984C884DF80EE80FD80C7
:1049C0000C811B81AA81B981CE0FD11D0FB6F8943D
:0E49D000DEBF0FBECDBFED010895F894FFCFFE
:1049DE00466F756E64204B6579776F72640054690B
:1049EE006D65204F7574002B53544154453A005356
:1049FE0074617475732069733A00494E4954494184
:104A0E004C495A454400524541445900504149527F
:104A1E0041424C450050414952454400494E515582
:104A2E004952494E4700434F4E4E454354494E4717
:104A3E0000434F4E4E454354454400444953434F63
:104A4E004E4E454354454400554E4B4E4F574E0027
:104A5E000A2A2A2A204572726F723A20696E204500
:104A6E00465F75385F426C7565746F6F74685F472B
:104A7E0065744D6F64756C655374617475732046FF
:104A8E00756E6374696F6E206174204745545F4D77
:104A9E004F44554C455F53544154555320436F6D0D
:104AAE006D616E64202A2A2A0A004F4B000A2A2AB8
:104ABE002A204572726F723A20696E2045465F4217
:104ACE004F4F4C45414E5F426C7565746F6F746805
:104ADE005F4D6173746572436F6E6E6563742046CD
:104AEE00756E6374696F6E20617420434F4E4E4530
:104AFE0043545F544F5F52454D4F54455F444556A6
:104B0E0049434520436F6D6D616E64202A2A2A0A3F
:104B1E00000D0A002B524E414D453A00536C617602
:104B2E0065206E616D65206973203A000A2A2A2A73
:104B3E00204572726F723A20696E2045465F424F71
:104B4E004F4C45414E5F426C7565746F6F74685F74
:104B5E004D6173746572436F6E6E65637420467536
:104B6E006E6374696F6E206174204745545F5245C1
:104B7E004D4F54455F4445564943455F4E414D4563
:104B8E0020436F6D6D616E64202A2A2A0A000A2A5C
:104B9E002A2A204572726F723A20696E2045465F4E
:104BAE00424F4F4C45414E5F426C7565746F6F744A
:104BBE00685F4D6173746572436F6E6E65637420CA
:104BCE0046756E6374696F6E206174205041495250
:104BDE00494E4720436F6D6D616E64202A2A2A0A62
:104BEE00000A2A2A2A204572726F723A20696E20B4
:104BFE0045465F424F4F4C45414E5F426C75657462
:104C0E006F6F74685F4D6173746572436F6E6E651E
:104C1E0063742046756E6374696F6E2061742042F2
:104C2E00494E44494E4720436F6D6D616E64202A94
:104C3E002A2A0A000A2A2A2A204572726F723A20FC
:104C4E00696E2045465F424F4F4C45414E5F426C68
:104C5E007565746F6F74685F4D6173746572436FC1
:104C6E006E6E6563742046756E6374696F6E206137
:104C7E0074205345545F434F4E4E454354494F4E57
:104C8E005F544F5F444546494E4945445F41444455
:104C9E0020436F6D6D616E64202A2A2A0A000A2A4B
:104CAE002A2A204572726F723A20696E2045465F3D
:104CBE00424F4F4C45414E5F426C7565746F6F7439
:104CCE00685F4D61737465725363616E2046756ED5
:104CDE006374696F6E20617420494E515549524577
:104CEE005F4143434553535F4D4F444520436F6DE2
:104CFE006D616E64202A2A2A0A002B494E513A0011
:104D0E004578697374204D41432041646472657324
:104D1E0073657320617265203A004572726F723A44
:104D2E0020696E20496E69742046756E6374696FD2
:104D3E006E20617420524553544F52455F46414395
:104D4E00544F52595F53455454494E4720436F6D4B
:104D5E006D616E64004572726F723A20696E204901
:104D6E006E69742046756E6374696F6E206174206F
:104D7E005345545F4D4F44554C455F4E414D452074
:104D8E00436F6D6D616E64004572726F723A206989
:104D9E006E20496E69742046756E6374696F6E205D
:104DAE006174205345545F4D4F44554C455F5041FF
:104DBE005353574F524420436F6D6D616E640045DF
:104DCE0072726F723A20696E20496E697420467550
:104DDE006E6374696F6E20617420434C4541525F5F
:104DEE0050524556494F55534C595F5041495245C3
:104DFE00445F4445564943455320436F6D6D616E84
:104E0E0064004572726F723A20696E20496E697441
:104E1E002046756E6374696F6E206174205345541D
:104E2E005F434F4E4E454354494F4E5F544F5F4183
:104E3E004E595F44455649434520436F6D6D616E33
:104E4E0064004572726F723A20696E20496E697401
:104E5E002046756E6374696F6E20617420534554DD
:104E6E005F4D415354455220436F6D6D616E64002A
:104E7E004572726F723A20696E20496E69742046CF
:104E8E00756E6374696F6E2061742052455345547C
:104E9E005F4D4F44554C4520436F6D6D616E640000
:104EAE000A2A2A2A204572726F723A20696E2049A8
:104EBE006E69742046756E6374696F6E206174201E
:104ECE005345545F534C41564520436F6D6D616E93
:104EDE0064202A2A2A0A000A2A2A2A204572726F78
:104EEE00723A20696E20496E69742046756E63743D
:104EFE00696F6E2061742052455345545F4D4F4487
:104F0E00554C4520436F6D6D616E64202A2A2A0A26
:104F1E0000466F756E64204B6579776F726400542E
:104F2E00696D65204F757400696E76616C696400F9
:104F3E004F4B002C38300D0A00434F4E4E45435414
:104F4E00000D0A0053454E44204F4B00556E6162D2
:104F5E006C6520746F2073656E6420546F207365CA
:104F6E0072766572004572726F723A20696E2043D6
:104F7E007265617465416365657373506F696E74B4
:104F8E002046756E6374696F6E2061742073656C54
:104F9E00656374204D6F646520436F6D6D616E6443
:104FAE0000222C22222C312C300D0A004572726FF9
:104FBE00723A20696E20437265617465416365655E
:104FCE007373506F696E742046756E6374696F6E7D
:104FDE00206174204372656174652041636365735B
:104FEE007320506F696E7420436F6D6D616E640037
:104FFE004572726F723A20696E204F70656E5365FE
:10500E00727665722046756E6374696F6E20617478
:10501E0020656E61626C65206F70656E20536572DF
:10502E0076657220436F6D6D616E64004572726FAE
:10503E00723A20696E204F70656E53657276657296
:10504E002046756E6374696F6E206174207365748B
:10505E00205365727665722054696D6520436F6DBD
:10506E006D616E6400220D0A004572726F723A20F5
:10507E00696E2053657449702046756E6374696F4E
:10508E006E2061742053657420497020436F6D6DDE
:10509E00616E6400222C22004661696C20746F20C0
:1050AE00436F6E6E65637420746F20596F75722036
:1050BE0041636365737320506F696E74210077646A
:1050CE0074207265736574004572726F723A20694E
:1050DE006E20496E69742046756E6374696F6E201A
:1050EE00617420526573657420436F6D6D616E64DB
:1050FE00004572726F723A20696E20496E69742093
:10510E0046756E6374696F6E206174206368616E9C
:10511E006765204D6F646520436F6D6D616E642011
:10512E00004572726F723A20696E20496E69742062
:10513E0046756E6374696F6E206174204D756C7464
:10514E00692D436F6E6E656374696F6E20436F6D6C
:10515E006D616E64004572726F7220696E20496EC9
:10516E0069742046756E6374696F6E206174204792
:10517E0065742076657273696F6E20436F6D6D6115
:10518E006E640041540D0A00415445300D0A004131
:10519E005445310D0A0041542B4950523D39363099
:1051AE00300D0A0041542B5253540D0A0041542B1A
:1051BE0043574D4F44453D310D0A0041542B435743
:1051CE004C41500D0A0041542B43574A41503D006B
:1051DE0041542B43575141500D0A0041542B474D1A
:1051EE00520D0A0041542B4349504D55583D310D37
:1051FE000A0041542B4349505345525645523D31B6
:10520E002C38300D0A0041542B43494653520D0A97
:10521E000041542B43495053544152543D342C2297
:10522E00544350222C0041542B43495053454E4475
:10523E000D0A0041542B43495053454E443D342CE6
:10524E000041542B434950434C4F53450D0A0041E6
:10525E00542B4349505354413D0041542B43495024
:10526E0053544F3D373230300D0A0041542B4357C3
:10527E005341503D220041542B43574D4F44453D21
:10528E00330D0A004750524D43006E6F7420766105
:10529E006C6964206461746100000000000000000D
:1052AE0000000102020303030304040404040404C3
:1052BE000405050505050505050505050505050591
:1052CE000506060606060606060606060606060671
:1052DE000606060606060606060606060606060660
:1052EE000607070707070707070707070707070741
:1052FE000707070707070707070707070707070730
:10530E00070707070707070707070707070707071F
:10531E00070707070707070707070707070707070F
:10532E0007080808080808080808080808080808F0
:10533E0008080808080808080808080808080808DF
:10534E0008080808080808080808080808080808CF
:10535E0008080808080808080808080808080808BF
:10536E0008080808080808080808080808080808AF
:10537E00080808080808080808080808080808089F
:10538E00080808080808080808080808080808088F
:10539E00080808080808080808080808080808087F
:1053AE0008130800000000000000000000000000CC
:1053BE0000000000000000000000000000000000DF
:1053CE0000000000000000000000000000000000CF
:1053DE00000000180800000000000000000000009F
:1053EE0000000000000000000000000000000000AF
:1053FE00000000000000000000000000000000009F
:10540E0000000000001F0800000000000000000067
:10541E00000000000000000000000000000000007E
:10542E00000000000000000000000000000000006E
:10543E000000000000000026080000000000000030
:10544E00000000000000000000000000000000004E
:10545E00000000000000000000000000000000003E
:10546E0000000000000000000034080000000000F2
:10547E00000000000000000000000000000000001E
:10548E00000000000000000000000000000000000E
:10549E0000000000000000000000003D08000000B9
:1054AE0000000000000000000000000000000000EE
:1054BE0000000000000000000000000000000000DE
:1054CE00000000000000000000000000004B08007B
:1054DE0000000000000000000000000000000000BE
:1054EE0000000000000000000000000000000000AE
:1054FE000000000000000000000000000000005648
:10550E000800000000000000000000000000000085
:10551E00000000000000000000000000000000007D
:10552E00000000000000000000000000000000006D
:10553E0000600800000000000000000000000000F5
:10554E00000000000000000000000000000000004D
:10555E00000000000000000000000000000000003D
:10556E000000006B080000000000000000000000BA
:10557E00000000000000000000000000000000001D
:10558E00000000000000000000000000000000000D
:10559E000000000000740800000000000000000081
:1055AE0000000000000000000000000000000000ED
:1055BE0000000000000000000000000000000000DD
:1055CE000000000000000082080000000000000043
:1055DE0000000000000000000000000000000000BD
:1055EE0000000000000000000000000000000000AD
:1055FE0000000000000000000096080000000000FF
:10560E00000000000000000000000000000000008C
:10561E00000000000000000000000000000000007C
:10562E000000000000000000000000A108000000C3
:10563E00000000000000000000000000000000005C
:10564E00000000000000000000000000000000004C
:10565E0000000000000000000000000000B608007E
:10566E00000000000000000000000000000000002C
:10567E00000000000000000000000000000000001C
:10568E00000000000000000000000000000000C349
:10569E0008000000000000000000000000000000F4
:1056AE0000000000000000000000000000000000EC
:1056BE0000000000000000000000000000000000DC
:1056CE0000D10800000000000000000000000000F3
:1056DE0000000000000000000000000000000000BC
:1056EE0000000000000000000000000000000000AC
:1056FE00000000DF080000000000000000000000B5
:10570E00000000000000000000000000000000008B
:10571E00000000000000000000000000000000007B
:10572E000000000000EA0800000000000000000079
:10573E00000000000000000000000000000000005B
:10574E00000000000000000000000000000000004B
:10575E0000000000000000FB080000000000000038
:10576E00000000000000000000000000000000002B
:10577E00000000000000000000000000000000001B
:10578E0000000000000000000006090000000000FC
:10579E0000000000000000000000000000000000FB
:1057AE0000000000000000000000000000000000EB
:1057BE0000000000000000000000000000000000DB
:1057CE0000000000000000000000000000000000CB
:1057DE0000000000000000000000000000000000BB
:1057EE0000000000000000000000000000000000AB
:1057FE00000000000000000000000000000000009B
:10580E00000000000000000000000000000000008A
:10581E00000000000000000000000000000000007A
:10582E00000000000000000000000000000000006A
:10583E00000000000000000000000000000000005A
:10584E00000000000000000000000000000000004A
:10585E00000000000000000000000000000000003A
:10586E00000000000000000000000000000000002A
:10587E00000000000000000000000000000000001A
:10588E0000000080250000080000000001010180DA
:10589E0025000008000001000101041F1111111F55
:1058AE001F1F2C002B002A004000400029004154ED
:1058BE002B4F52474C0D0A00000000000041542BA4
:1058CE0056455253494F4E0D0A00000041542B418C
:1058DE004444520D0A00000000000041542B4E417A
:1058EE004D453D0000000000000041542B50535721
:1058FE00443D0000000000000041542B524D414138
:10590E00440D0A000000000041542B434D4F444506
:10591E003D310D0A00000041542B524F4C453D3194
:10592E000D0A0000000041542B52455345540D0AF8
:10593E00000000000041542B524F4C453D300D0AE3
:10594E000000000041542B53544154453F0D0A00B2
:10595E000000000000000000000000000000000039
:10596E000000000000000000000000000000000029
:10597E000000000000000000000000000000000019
:10598E0000000000000000000000000000000041C8
:10599E00542B494E514D3D302C0000000000415417
:1059AE002B494E49540D0A00000000000041542BB3
:1059BE00494E510D0A0000000000000041542B52C8
:1059CE004E414D453F00000000000041542B504118
:1059DE0049523D0000000000000041542B42494E48
:1059EE00443D0000000000000041542B434D4F4445
:1059FE00453D300D0A00000041542B4C494E4B3DA5
:105A0E000000000000000041542B444953430D0A8E
:105A1E000000000000000000000000000000000078
:105A2E000000000000000000000000000000000068
:105A3E000000000000000000000000000000000058
:105A4E000000000000000000000000000000000048
:105A5E000000000000000000000000000000000038
:105A6E000000000000000000000000000000000028
:105A7E00009600000800000100010100C2010008AC
:105A8E0000000000010100C201000800000000013A
:105A9E00010000004341540D000000000000000012
:105AAE0000000000000000000000000000000000E8
:105ABE00000000415445300D0000000000000000C1
:105ACE0000000000000000000000000000000000C8
