:100000000C942A000C9447000C9499120C9447000D
:100010000C9447000C94B50B0C9447000C944700CB
:100020000C9447000C9447000C9447000C94470034
:100030000C9447000C9447000C9447000C94470024
:100040000C9447000C9447000C9447000C94470014
:100050000C94470011241FBECFE5D8E0DEBFCDBF12
:1000600014E0A0E6B0E0ECE8FEE202C005900D92DC
:10007000AE3BB107D9F715E0AEEBB4E001C01D927D
:10008000AE3AB107E1F70E946B160C9444170C943A
:100090000000EF92FF920F931F937B018C0120E0F1
:1000A00030E040E05FE40E94C50388238CF0C80183
:1000B000B70120E030E040E05FE40E94C1010E940F
:1000C000F5039B01AC01205030404040504806C031
:1000D000C801B7010E94F5039B01AC01B901CA0137
:1000E0001F910F91FF90EF900895A0E0B0E0EBE733
:1000F000F0E00C940D17DC012B01FA019C91923079
:1001000008F439C1EB018881823008F433C194309E
:1001100069F4843009F02FC111969C91119789815F
:10012000981709F428C1A2E8B0E025C1843009F489
:1001300021C18230A9F4923009F01DC19A01AD01AC
:1001400088E0EA010990AE01E90109929E0181501F
:10015000C1F7E201898111969C918923818308C1AD
:10016000923009F407C112962D903C901397EB0141
:100170008A819B811496AD90BD90CD90DC901797AD
:10018000EC80FD800E811F819101281B390BB90184
:1001900037FF04C066277727621B730B6032710537
:1001A0000CF061C0121613066CF537014801062EDB
:1001B00004C096948794779467940A94D2F721E0C8
:1001C00030E040E050E004C0220F331F441F551FB1
:1001D0006A95D2F721503040404050402E213F21B7
:1001E00040235123211531054105510521F021E01E
:1001F00030E040E050E079018A01E628F72808293C
:1002000019293CC0232BD1F1260E371E350146019A
:10021000062E04C096948794779467940A94D2F734
:1002200021E030E040E050E004C0220F331F441FC3
:10023000551F6A95D2F721503040404050402A2146
:100240003B214C215D21211531054105510521F04E
:1002500021E030E040E050E059016A01A628B728CB
:10026000C828D9280BC0821593052CF01C01AA249C
:10027000BB24650103C0EE24FF24870111969C91E5
:10028000D20111968C91981709F445C0992339F041
:10029000A80197012A193B094C095D0906C0A6016E
:1002A00095012E193F09400B510B57FD08C01182D3
:1002B0003382228224833583468357831DC081E0A5
:1002C00081833382228288279927DC01821B930B4A
:1002D000A40BB50B84839583A683B7830DC0220F2F
:1002E000331F441F551F24833583468357838281E0
:1002F000938101979383828324813581468157813D
:10030000DA01C9010197A109B1098F5F9F4FAF4F72
:10031000BF4328F30BC0918333822282EA0CFB1C7B
:100320000C1D1D1DE482F5820683178383E0808304
:10033000248135814681578157FF1AC0C901AA27F8
:1003400097FDA095BA2F81709070A070B0705695EF
:10035000479537952795822B932BA42BB52B848318
:100360009583A683B7838281938101969383828349
:10037000DF0101C0D201CD01CDB7DEB7E2E10C94BF
:100380002917A0E2B0E0E7ECF1E00C9419176983BB
:100390007A838B839C832D833E834F835887E9E048
:1003A000EE2EF12CEC0EFD1ECE010196B7010E943F
:1003B000E6058E010F5E1F4FCE010596B8010E9423
:1003C000E6058A8991E089278A8BC701B801AE01C9
:1003D000475E5F4F0E9475000E941105A096E6E0FF
:1003E0000C943517A0E2B0E0E8EFF1E00C94191797
:1003F00069837A838B839C832D833E834F835887C5
:10040000F9E0EF2EF12CEC0EFD1ECE010196B701A6
:100410000E94E6058E010F5E1F4FCE010596B801C2
:100420000E94E605C701B801AE01475E5F4F0E941A
:1004300075000E941105A096E6E00C943517A0E225
:10044000B0E0E5E2F2E00C940D1769837A838B83C8
:100450009C832D833E834F835887CE010196BE0136
:10046000675F7F4F0E94E605CE010596BE016F5E75
:100470007F4F0E94E6059985923088F08989823005
:10048000C8F0943019F4823051F404C0843029F457
:10049000923081F482E890E0C6C0923049F420E0C6
:1004A0009A858A89981321E02A87CE010996BBC0D4
:1004B000823049F420E09A858A89981321E02A8BBA
:1004C000CE014196B0C02D843E844F8458886D88FB
:1004D0007E888F88988CEE24FF248701AA24BB2471
:1004E000650140E050E060E070E0E0E0F0E0C10174
:1004F00081709070892BE9F0E60CF71C081D191D1E
:100500009A01AB012A0D3B1D4C1D5D1D80E090E062
:10051000A0E0B0E0E614F7040805190520F481E036
:1005200090E0A0E0B0E0BA01A901480F591F6A1F8E
:100530007B1FAA0CBB1CCC1CDD1C97FE08C081E0F5
:1005400090E0A0E0B0E0A82AB92ACA2ADB2A3196B6
:10055000E032F10549F0660C771C881C991C569412
:10056000479437942794C3CFFA85EA892B893C892D
:100570008B859C85280F391F2E5F3F4F17C0CA01FE
:1005800081709070892B61F016950795F794E79428
:1005900080E090E0A0E0B0E8E82AF92A0A2B1B2BC3
:1005A00076956795579547952F5F3F4F77FDE7CF36
:1005B0000CC0440F551F661F771F17FD4160EE0CDE
:1005C000FF1C001F111F21503040403090E05907A0
:1005D00090E0690790E4790760F32B8F3C8FDB0193
:1005E000CA018F779070A070B07080349105A1051A
:1005F000B10561F447FD0AC0E114F10401051105DC
:1006000029F0405C5F4F6F4F7F4F40781A8EFE1786
:1006100011F081E08A8F4D8F5E8F6F8F78A383E01A
:10062000898FCE0149960E941105A096E2E10C94B3
:100630002917A8E1B0E0EFE1F3E00C941517698306
:100640007A838B839C832D833E834F835887B9E0C5
:10065000EB2EF12CEC0EFD1ECE010196B7010E948F
:10066000E6058E010F5E1F4FCE010596B8010E9470
:10067000E6052985223008F47EC03989323010F42D
:10068000B8017CC08A859A8989278A87243011F02D
:10069000223031F4231709F06EC062E870E06EC0BA
:1006A000343039F41D861E861F86188A1C861B86E8
:1006B00004C0323021F484E08987B7015FC02B8504
:1006C0003C858B899C89281B390B3C872B87ED84C3
:1006D000FE840F851889AD88BE88CF88D88CEA142F
:1006E000FB040C051D0540F4EE0CFF1C001F111F40
:1006F000215030403C872B8720E030E040E050E044
:1007000080E090E0A0E0B0E460E070E0EA14FB0478
:100710000C051D0540F0282B392B4A2B5B2BEA18C2
:10072000FB080C091D09B695A79597958795EE0CC2
:10073000FF1C001F111F6F5F7F4F6F31710531F775
:10074000DA01C9018F779070A070B0708034910584
:10075000A105B10561F427FD0AC0E114F10401050A
:10076000110529F0205C3F4F4F4F5F4F20782D87B8
:100770003E874F87588BBE01675F7F4FCB010E943A
:1007800011056896EAE00C943117A8E1B0E0EBECB3
:10079000F3E00C94191769837A838B839C832D83F0
:1007A0003E834F83588789E0E82EF12CEC0EFD1E26
:1007B000CE010196B7010E94E6058E010F5E1F4F24
:1007C000CE010596B8010E94E6058985823040F089
:1007D0008989823028F0C701B8010E945E0601C0F5
:1007E0008FEF6896E6E00C943517ACE0B0E0EBEFE5
:1007F000F3E00C941D1769837A838B839C83CE016D
:100800000196BE016B5F7F4F0E94E6058D818230AD
:1008100061F1823050F1843021F48E81882351F1CE
:100820002EC02F81388537FD20C06E812F313105D4
:100830001CF06623F9F023C08EE190E0821B930B3D
:1008400029853A854B855C8504C056954795379533
:1008500027958A95D2F76623B1F05095409530954B
:1008600021953F4F4F4F5F4F0EC020E030E040E0FA
:1008700050E009C02FEF3FEF4FEF5FE704C020E0EB
:1008800030E040E050E8B901CA012C96E2E00C9457
:100890003917A8E0B0E0EFE4F4E00C9415177B0101
:1008A0008C01611571058105910519F482E0898338
:1008B00060C083E089838EE1C82ED12CDC82CB829C
:1008C000ED82FE820F831887C801B7010E94C2041F
:1008D000FC013197F7FF3BC0222733272E1B3F0B2C
:1008E00057016801022E04C0D694C794B794A79408
:1008F0000A94D2F740E050E060E070E081E090E0E0
:10090000A0E0B0E004C0880F991FAA1FBB1F2A9562
:10091000D2F70197A109B1098E219F21A023B1230C
:100920000097A105B10521F041E050E060E070E0E2
:100930004A295B296C297D294D835E836F837887E3
:100940008EE190E08E1B9F0B9C838B8312C03097AF
:1009500081F00E2E04C0EE0CFF1C001F111F0A9424
:10096000D2F7ED82FE820F831887CE1ADF0ADC826F
:10097000CB821A82CE0101960E9411052896EAE0E8
:100980000C943117EF92FF920F931F937B018C0110
:1009900080E0E81680E0F80681E0080780E01807AC
:1009A00088F48FEFE816F1040105110531F028F005
:1009B00088E090E0A0E0B0E017C080E090E0A0E028
:1009C000B0E012C080E0E81680E0F80680E008079A
:1009D00081E0180728F088E190E0A0E0B0E004C0D2
:1009E00080E190E0A0E0B0E020E230E040E050E0C4
:1009F000281B390B4A0B5B0B04C016950795F7941F
:100A0000E7948A95D2F7F701E657FF4F8081281BBC
:100A1000310941095109C9011F910F91FF90EF90D0
:100A20000895DF92EF92FF920F931F93FC01E480F1
:100A3000F58006811781D1808081823048F480E082
:100A400090E0A0E1B0E0E82AF92A0A2B1B2BA5C010
:100A5000843009F49FC0823021F4EE24FF24870102
:100A600005C0E114F1040105110519F4E0E0F0E01E
:100A700096C0628173819FEF623879070CF05BC08A
:100A800022E83FEF261B370B2A3131052CF020E0FE
:100A900030E040E050E02AC0B801A701022E04C0B7
:100AA00076956795579547950A94D2F781E090E03F
:100AB000A0E0B0E004C0880F991FAA1FBB1F2A95B1
:100AC000D2F70197A109B1098E219F21A023B1235B
:100AD0000097A105B10521F081E090E0A0E0B0E031
:100AE0009A01AB01282B392B4A2B5B2BDA01C90168
:100AF0008F779070A070B07080349105A105B1051A
:100B000039F427FF09C0205C3F4F4F4F5F4F04C0AF
:100B1000215C3F4F4F4F5F4FE0E0F0E02030A0E01E
:100B20003A07A0E04A07A0E45A0710F0E1E0F0E03D
:100B300079018A0127C06038710564F5FB01E1582D
:100B4000FF4FD801C7018F779070A070B0708034CC
:100B50009105A105B10539F4E7FE0DC080E490E0F0
:100B6000A0E0B0E004C08FE390E0A0E0B0E0E80EC9
:100B7000F91E0A1F1B1F17FF05C016950795F7944E
:100B8000E794319687E016950795F794E7948A9550
:100B9000D1F705C0EE24FF248701EFEFF0E06E2FC0
:100BA000679566276795902F9F77D794DD24D79414
:100BB0008E2F8695492F462B582F5D29B701CA01E4
:100BC0001F910F91FF90EF90DF900895FC01DB01E2
:100BD000408151812281622F6F7770E0221F22278E
:100BE000221F9381892F880F822B282F30E0991F95
:100BF0009927991F11969C93119721153105A9F5F5
:100C0000411551056105710511F482E037C082E894
:100C10009FEF13969C938E9312979A01AB0167E016
:100C2000220F331F441F551F6A95D1F783E08C9321
:100C30000DC0220F331F441F551F12968D919C919A
:100C40001397019713969C938E931297203080E010
:100C5000380780E0480780E4580758F314962D932E
:100C60003D934D935C93179708952F3F310579F489
:100C7000411551056105710519F484E08C930895BF
:100C800064FF03C081E08C9312C01C9210C02F57E8
:100C9000304013963C932E93129783E08C9387E019
:100CA000440F551F661F771F8A95D1F770641496FD
:100CB0004D935D936D937C93179708951F93DC017B
:100CC000FB019C91923008F447C08081823008F487
:100CD00043C0943051F411961C91843099F5818170
:100CE000682F70E0611B71093FC0843021F09230A1
:100CF00031F48230B9F18181882389F12DC01196B8
:100D00001C9111978230F1F081811817D9F4129655
:100D10002D913C911397828193818217930794F0D0
:100D200028173907BCF014968D919D910D90BC91B8
:100D3000A02D2481358146815781281739074A071C
:100D40005B0718F4112341F00AC082179307A40728
:100D5000B50740F4112319F061E070E005C06FEFB2
:100D60007FEF02C060E070E0CB011F910895FB01AE
:100D7000DC014150504030F08D910190801919F400
:100D80000020B9F7881B990B0895FB019F01E89497
:100D90004230C4F04532B4F44A3029F497FB1EF4D3
:100DA000909581959F4F642F77270E94C416805D90
:100DB0008A330CF0895D8193CB010097A1F716F47B
:100DC0005DE251931082C9010C94E606DC01FC013E
:100DD000672F71917723E1F7329704C07C916D936F
:100DE00070836291AE17BF07C8F3089587B93E9A22
:100DF0003D98369A349BFECF349A24B145B1942F56
:100E000080E030E0282B392BC901089581E660E0AD
:100E10000E940F0786B1876086B9379A0895843497
:100E2000E9F0853438F48234A1F08334A0F48134BD
:100E300061F40DC0823669F0833618F4813629F4E6
:100E400006C0833641F0843649F08FEF08956ABBBF
:100E500003C067BB01C064BB81E0089561BB81E052
:100E600008958434E9F0853438F48234A1F0833471
:100E7000A0F4813461F40DC0823669F0833618F431
:100E8000813629F406C0833641F0843649F08FEF6D
:100E900008956BBB03C068BB01C065BB81E00895CA
:100EA00062BB81E00895DF93CF930F92CDB7DEB799
:100EB0008434D9F0853438F4823499F0833498F44A
:100EC0008134A9F40CC0823661F0833618F481367F
:100ED00071F405C0833639F0843649F406C089B30D
:100EE00007C086B305C083B303C080B301C08FEFD2
:100EF0008983898190E00F90CF91DF9108958434A8
:100F000009F46FC0853440F4823491F1833408F0E1
:100F10004CC0813471F40FC0823651F1833618F41D
:100F2000813639F408C0833609F43FC0843609F4A9
:100F300058C08FEF0895442321F0413009F06EC06E
:100F40000CC02AB381E090E002C0880F991F6A9517
:100F5000E2F7809582238ABB5FC02AB381E090E0EC
:100F600002C0880F991F6A95E2F7282B2ABB54C04C
:100F7000442321F0413009F051C00CC027B381E077
:100F800090E002C0880F991F6A95E2F7809582234E
:100F900087BB42C027B381E090E002C0880F991F51
:100FA0006A95E2F7282B27BB37C0442319F041305C
:100FB000A9F50CC024B381E090E002C0880F991F0E
:100FC0006A95E2F78095822384BB26C024B381E032
:100FD00090E002C0880F991F6A95E2F7282B24BB86
:100FE0001BC0442319F04130C9F40CC021B381E087
:100FF00090E002C0880F991F6A95E2F780958223DE
:1010000081BB0AC021B381E090E002C0880F991F24
:101010006A95E2F7282B21BB81E0089581E00895CD
:10102000683008F044C08434B1F1853438F4823437
:10103000E1F0833428F58134D1F50CC08236A9F073
:10104000833618F4813699F505C08336C9F08436A5
:1010500071F521C02BB381E090E002C0880F991F89
:101060006A95E2F7282B2BBB20C028B381E090E0E3
:1010700002C0880F991F6A95E2F7282B28BB15C07C
:1010800025B381E090E002C0880F991F6A95E2F7CE
:10109000282B25BB0AC022B381E090E002C0880F54
:1010A000991F6A95E2F7282B22BB81E008958FEF04
:1010B0000895683008F049C08434D1F1853440F493
:1010C0008234F1F0833440F5813409F03EC00CC025
:1010D0008236B1F0833618F48136B9F505C083360F
:1010E000D9F0843691F524C02BB381E090E002C0A2
:1010F000880F991F6A95E2F7809582238BBB23C0E6
:1011000028B381E090E002C0880F991F6A95E2F74A
:101110008095822388BB17C025B381E090E002C090
:10112000880F991F6A95E2F78095822385BB0BC0D3
:1011300022B381E090E002C0880F991F6A95E2F720
:101140008095822382BB81E008958FEF08958434D7
:1011500001F1853438F48234A9F08334B0F4813459
:1011600061F40DC0823671F0833618F4813629F4AB
:1011700006C0833651F0843661F08FEF08958FEF0B
:101180008BBB05C08FEF88BB02C08FEF85BB81E0B2
:1011900008958FEF82BB81E008958434E9F08534AF
:1011A00038F48234A1F08334A0F4813461F40DC0AA
:1011B000823669F0833618F4813629F406C0833606
:1011C00041F0843649F08FEF08951BBA03C018BA76
:1011D00001C015BA81E0089512BA81E0089568301F
:1011E00008F044C08434B1F1853438F48234E1F03D
:1011F000833428F58134D1F50CC08236A9F08336CA
:1012000018F4813699F505C08336C9F0843671F536
:1012100021C02BB381E090E002C0880F991F6A952E
:10122000E2F728272BBB20C028B381E090E002C062
:10123000880F991F6A95E2F7282728BB15C025B3A8
:1012400081E090E002C0880F991F6A95E2F7282795
:1012500025BB0AC022B381E090E002C0880F991F2D
:101260006A95E2F7282722BB81E008958FEF089561
:10127000683038F5843419F1853438F4823499F0C3
:10128000833498F48134E9F40CC0823661F08336FB
:1012900018F48136B1F405C0833639F0843689F408
:1012A0000EC029B303C026B301C023B381E090E090
:1012B00002C0880F991F6A95E2F7282303C020B364
:1012C000F5CF2FEF822F0895E199FECF9FBB8EBB04
:1012D0006DBBE29AE19A0895E199FECF9FBB8EBB68
:1012E000E09A80ED97E00197F1F78DB308959C01A6
:1012F000FB018081882369F408958081E199FECF04
:101300003FBB2EBB8DBBE29AE19A2F5F3F4F3196D8
:101310004150442391F708959C01DB018C9188236F
:1013200079F40895E199FECF3FBB2EBBE09AFB0113
:101330003197F1F78DB38D932F5F3F4F415002C02E
:1013400060ED77E0442371F7089580E090E02FEF9F
:10135000E199FECF9FBB8EBB2DBBE29AE19A01962D
:1013600034E080309307A1F7089583B984E886BFFD
:1013700006B607FEFDCF089584EA86BF06B607FECF
:10138000FDCF089584E986BF089511B887E480B938
:1013900084E086BF08958295880F880F807C8468DA
:1013A00086BF06B607FEFDCF83B108951FBC089522
:1013B000CF92DF92EF92FF921F93CF93DF936C0156
:1013C000EB0183E48EBD85E00E94100B85E00E9456
:1013D000580B08B605FC05C085E00E94480B882321
:1013E000C1F385E00E94480B182F85E00E94690B2D
:1013F00085E00E94750BE6B4F7B488B7806288BFB9
:10140000113011F410E026C085E0BE010E94100BDF
:1014100085E00E94580B08B605FC05C085E00E94D7
:10142000480B8823C1F385E00E94480B10E081300F
:1014300009F011E085E00E94690B85E00E94750BC0
:1014400086B597B58E199F09F6019183808388B779
:10145000806288BF812FDF91CF911F91FF90EF9025
:10146000DF90CF900895CF92DF92EF92FF921F937B
:10147000CF93DF936C01EB0183E48EBD85E00E9486
:10148000100B85E00E94580B08B605FC05C085E0EE
:101490000E94480B8823C1F385E00E94480B182F57
:1014A00085E00E94690B85E00E94750BE6B4F7B4F5
:1014B00088B7806288BF113011F410E028C083E043
:1014C0008EBD85E0BE010E94100B85E00E94580B86
:1014D00008B605FC05C085E00E94480B8823C1F3CF
:1014E00085E00E94480B10E0813009F011E085E0B2
:1014F0000E94690B85E00E94750B86B597B58E1921
:101500009F09F6019183808388B7806288BF812F0D
:10151000DF91CF911F91FF90EF90DF90CF900895D2
:10152000882329F4BB9A13BE8BE683BF12BE0895AD
:10153000662309F48CBF0895982F662349F48FEF32
:10154000989FC001112464E670E00E94D8166CBF19
:1015500008958FB9779BFECF8FB10895CF93DF9316
:10156000EC0187E00E94580B88818FB9779905C0FC
:1015700087E00E94480B8823C9F387E00E94690B2B
:1015800087E00E94750B8EB19FB19883881F8827D2
:10159000881FDF91CF91089593E69DB9813029F49A
:1015A0006C9A87B3806B87BB01C0BE9A87E065E009
:1015B00070E00E94100B089540E050E0FA01EE0F39
:1015C000FF1FE40FF51FEE0FFF1FE254FB4F658175
:1015D000613079F4828193810196938382832281A1
:1015E0003381808191812817390719F4138212827F
:1015F00064834F5F5F4F4A30510501F7089590E0D3
:10160000FC01EE0FFF1FE80FF91FEE0FFF1FE25462
:10161000FB4F138212821182108214821582089568
:1016200090E0FC01EE0FFF1FE80FF91FEE0FFF1F08
:10163000E254FB4F80819181892B31F47183608367
:101640001382128214821582089540E050E0FA015C
:10165000EE0FFF1FE40FF51FEE0FFF1FE254FB4FCD
:101660006581613079F482819381019693838283CD
:1016700022813381808191812817390719F41382DF
:10168000128264834F5F5F4F4A30510501F708951E
:1016900090E0FC01EE0FFF1FE80FF91FEE0FFF1F98
:1016A000E254FB4F8481882311F0148281E0089575
:1016B00090E0FC01EE0FFF1FE80FF91FEE0FFF1F78
:1016C000E254FB4F80819181892B11F081E0858369
:1016D000089590E0FC01EE0FFF1FE80FF91FEE0FD9
:1016E000FF1FE254FB4F1582089590E0FC01EE0FBE
:1016F000FF1FE80FF91FEE0FFF1FE254FB4F13828D
:10170000128208950E949E0B8CED9AE00E94AB0B12
:1017100080E090E0FC01EE0FFF1FE80FF91FEE0FD5
:10172000FF1FE254FB4F1382128211821082148237
:10173000158201968A30910569F7089585B587600D
:1017400085BD89E784BD89B7806489BF88B7806417
:1017500088BF789408959093FB048093FA040895C9
:101760001092FB041092FA0408951F920F920FB684
:101770000F9211242F933F934F935F936F937F9317
:101780008F939F93AF93BF93EF93FF93E091FA04EE
:10179000F091FB04309709F0099589E784BD88B77B
:1017A000806488BFFF91EF91BF91AF919F918F911E
:1017B0007F916F915F914F913F912F910F900FBE4D
:1017C0000F901F9018955F9BFECF8CB108955D9B85
:1017D000FECF8CB90895FC0180E006C090815D9B2E
:1017E000FECF9CB98F5F31968617C0F308951F9383
:1017F000182F86E00E94580B5D9905C086E00E9474
:10180000480B8823C9F386E00E94690B86E00E949A
:10181000750B5D9902C080E002C01CB981E01F9188
:101820000895CF93DF93EC0186E00E94580B5F99F7
:1018300005C086E00E94480B8823C9F386E00E9419
:10184000690B86E00E94750B8BB19CB19883881F51
:101850008827881FDF91CF910895CF93DF93EC0104
:101860001AB810BC288139814A815B8194E0220F2B
:10187000331F441F551F9A95D1F760E072E18AE744
:1018800090E00E94EB162150304040405040BB2772
:10189000A52F942F832F80BD29B98F818111579A4D
:1018A00088858111569A89858111549A8A8581117A
:1018B000539A90B58E818295807F892B80BD90B59B
:1018C0008D81880F880F880F892B80BD2C8129304E
:1018D00011F4529A0CC0253069F0263019F480B505
:1018E000826807C0273019F480B5846802C080B5CB
:1018F000866880BD86E065E070E00E94100BDF9195
:10190000CF910895EF92FF920F931F93CF93DF93A0
:10191000EC0168EE73E00E94C416182F092F64E6EC
:1019200070E00E94C416F82EE92E83E0C83ED80766
:10193000E8F083E467E00E94590883E466E00E94CF
:10194000100883E464E00E94100883E465E00E94CC
:101950001008CE0168EE73E00E94C41682E40E9473
:10196000310780E197E20197F1F703C0C436D10552
:10197000E8F083E466E00E94590883E467E00E948F
:10198000100883E464E00E94100883E465E00E948C
:101990001008812F902F64E670E00E94C41682E444
:1019A0000E94310780E197E20197F1F72A97E8F06A
:1019B00083E465E00E94590883E464E00E94100813
:1019C00083E467E00E94100883E466E00E94100848
:1019D0008F2D9E2D6AE070E00E94C41682E40E9462
:1019E000310780E197E20197F1F783E465E00E9417
:1019F000100883E466E00E94100883E467E00E9418
:101A0000100883E464E00E9459088F2D9E2D6AE03F
:101A100070E00E94C416682F82E40E94310780E1C2
:101A200097E20197F1F7DF91CF911F910F91FF900E
:101A3000EF90089582E46FE00E940F0783E460EF67
:101A40000E940F070895EF92FF920F931F93082FA4
:101A5000F62EE42E0E94BC0980ED0E94B50984E0B8
:101A60000E94B509802F6AE00E94B81616E0819F97
:101A7000C0011124800F0E94B5098F2D6AE00E94D9
:101A8000B816819FC00111248F0D0E94B5098E2DBB
:101A90006AE00E94B816819FC00111248E0D0E9439
:101AA000B5090E94C2091F910F91FF90EF90089510
:101AB000EF92FF920F931F93E82EF62E042F0E94B1
:101AC000BC0980ED0E94B50980E00E94B509802F15
:101AD0006AE00E94B81616E0819FC0011124800FB1
:101AE0000E94B5098F2D6AE00E94B816819FC0013F
:101AF00011248F0D0E94B5098E2D6AE00E94B81640
:101B0000819FC00111248E0D0E94B5090E94C20957
:101B10001F910F91FF90EF900895AF92BF92CF92D7
:101B2000DF92EF92FF920F931F937C016B015A019A
:101B30000E94BC0980ED0E94B50984E00E94B509AD
:101B40000E94C2090E94BC0981ED0E94B50981E092
:101B50000E94CB09182F81E00E94CB09082F80E05A
:101B60000E94CB09912F92959F702AEF3FEF929F91
:101B7000902D1124910FF7019083902F92959F70D3
:101B8000929F902D1124900FF6019083982F92959B
:101B90009F70929F902D1124980FF50190830E94C1
:101BA000C2091F910F91FF90EF90DF90CF90BF90EF
:101BB000AF900895AF92BF92CF92DF92EF92FF92D3
:101BC0000F931F935C016B017A010E94BC0980EDA9
:101BD0000E94B50980E00E94B5090E94C2090E94D6
:101BE000BC0981ED0E94B50981E00E94CB09182F44
:101BF00081E00E94CB09082F80E00E94CB09912F41
:101C000092959F702AEF3FEF929F902D1124910F94
:101C1000F7019083902F92959F70929F902D1124A1
:101C2000900FF6019083982F92959F70929F902D20
:101C30001124980FF50190830E94C2091F910F9102
:101C4000FF90EF90DF90CF90BF90AF9008950E94EB
:101C5000C5090E94BC0980ED0E94B50987E00E9479
:101C6000B50980E00E94B5090E94C20988EC90E0A5
:101C70000197F1F708950F931F93082F162F0E94D5
:101C8000BC09812F0E94B509802F0E94B5090E94CE
:101C9000BC09812F81600E94B50981E00E94CB09B7
:101CA000182F0E94C209812F1F910F910895FF9252
:101CB0000F931F93182F062FF42E0E94BC09802F1C
:101CC0000E94B509812F0E94B5098F2D0E94B50988
:101CD0000E94C20980E395E70197F1F71F910F91E8
:101CE000FF9008950E94C50908951F9381E467E05D
:101CF0000E94590881E466E00E94100881E465E0D2
:101D00000E94100881E464E00E943809882311F4DD
:101D100011E011C081E463E00E943809882311F4C6
:101D200014E009C081E462E00E943809882311F4BC
:101D300017E001C010E081E466E00E94590881E4E8
:101D400067E00E94100881E465E00E94100881E4C9
:101D500064E00E943809882311F412E00FC081E486
:101D600063E00E943809882311F415E007C081E47C
:101D700062E00E943809882309F418E081E465E0F4
:101D80000E94590881E467E00E94100881E466E03F
:101D90000E94100881E464E00E943809882311F44D
:101DA00013E00FC081E463E00E943809882311F436
:101DB00016E007C081E462E00E943809882309F434
:101DC00019E0812F1F91089581E460EE0E940F07B2
:101DD00081E464E00E94100881E463E00E9410083E
:101DE00081E462E00E9410080895AE98AD98C7980B
:101DF000C698C598C49887FDC79A86FDC69A85FD82
:101E0000C59A84FDC49AAF9A95E09A95F1F7AF9878
:101E1000C798C698C598C49883FDC79A82FDC69A8C
:101E200081FDC59A80FDC49AAF9A85E08A95F1F745
:101E3000AF9888E592E00197F1F7089584B3806E3A
:101E400084BB15BA87B3806F87BB88B388BB80E239
:101E50009EE40197F1F788E20E94F50E8CE00E9463
:101E6000F50E86E00E94F50E80E80E94F50E80E4F3
:101E70009CE90197F1F70895AE98AD9AC798C69876
:101E8000C598C49887FDC79A86FDC69A85FDC59AF0
:101E900084FDC49AAF9A95E09A95F1F7AF98C798E8
:101EA000C698C598C49883FDC79A82FDC69A81FDDD
:101EB000C59A80FDC49AAF9A85E08A95F1F7AF98EC
:101EC00088E592E00197F1F70895DF93CF9300D072
:101ED00000D0CDB7DEB790E8998390EC9A8394E96F
:101EE0009B8394ED9C836150FE01E80FF11D80817E
:101EF000860F0E94F50E80E29EE40197F1F70F90A5
:101F00000F900F900F90CF91DF9108951F93CF9373
:101F1000DF93EC0110E003C00E943C0F1F5FFE0145
:101F2000E10FF11D80818823B9F7DF91CF911F91D7
:101F300008950F931F93CF93DF93062FEC0110E0CA
:101F400004C089910E943C0F1F5F1017D0F3DF91EE
:101F5000CF911F910F91089581E00E94F50E85E0C9
:101F60008A95F1F780E29EE40197F1F708950F93C7
:101F70001F93CF93DF938B01883090F4880F880FE5
:101F8000880F805C0E94F50EC0E0D0E0F801EC0FF5
:101F9000FD1F80810E943C0F2196C830D105B1F70A
:101FA000DF91CF911F910F910895CF93DF93EC01B3
:101FB000888182958F708A3010F0895C01C0805DC5
:101FC0000E943C0F88818F708A3010F0895C01C0BC
:101FD000805D0E943C0FDF91CF910895BF92CF9218
:101FE000DF92EF92FF920F93DF93CF93CDB7DEB7DF
:101FF00028970FB6F894DEBF0FBECDBFB62E9E0158
:102000002F5F3F4F38872F8326E0EF81F8851192AD
:102010002A95E9F7BE016F5F7F4F4AE050E00E94CA
:10202000C50600E06E010894C11CD11C09C00F5FF9
:102030008B2D602F0E94650FF70180810E943C0F5D
:102040007601E00EF11CF7018081882381F7289644
:102050000FB6F894DEBF0FBECDBFCF91DF910F91C9
:10206000FF90EF90DF90CF90BF9008952F923F9216
:102070004F925F926F927F929F92AF92BF92CF9258
:10208000DF92EF92FF920F931F93CF93DF931C0188
:10209000662321F402E0CAE0D0E009C0613021F4F7
:1020A00003E0C4E6D0E003C000E0C0E0D0E071018E
:1020B00010E00F2EF0E0AF2EF0E0BF2EF0E0CF2EBC
:1020C000F0E0DF2EF02D1FC0F70181917F0190E03D
:1020D000C097C89FB001C99F700DD89F700D112483
:1020E00080E090E00E9449049B01AC01C601B5016B
:1020F0000E94F2015B016C01CE016AE070E00E9477
:10210000C416EB011F5F1017F8F2902E0F2EF0E0AF
:10211000EF2EF0E0FF2EF0E00F2FF0E01F2FF02D5C
:10212000CAE0D0E0892D90E036E0432E512C480ED5
:10213000591E22E0622E712C680E791E22C0E6150F
:10214000F705F1F0E20DF31D808190E0C0978C9FC0
:10215000B0018D9F700D9C9F700D112480E090E068
:102160000E9449049B01AC01C801B7010E94F20121
:102170007B018C01CE016AE070E00E94C416EB0185
:102180009394E92DF0E04E165F06CCF6C801B70136
:1021900020E030E040E752E40E9419039B01AC01CB
:1021A000C601B5010E94F201DF91CF911F910F91FD
:1021B000FF90EF90DF90CF90BF90AF909F907F9077
:1021C0006F905F904F903F902F9008954F925F9245
:1021D0006F927F928F929F92AF92BF92CF92DF9237
:1021E000EF92FF920F931F93DF93CF93CDB7DEB79C
:1021F00027970FB6F894DEBF0FBECDBF4B015C0131
:1022000029013A016E010894C11CD11C87E0F60136
:1022100011928A95E9F7C501B4010E944900DC01D9
:10222000CB017C01B6014AE050E00E94C506C60120
:1022300062E00E94990F8EE20E943C0F00E010E0E5
:10224000C801B7010E9449049B01AC01C501B4015A
:102250000E94C10120E034E244E759E40E941F02D9
:102260000E9449007B018C01CB01B6014AE050E09D
:102270000E94C506CC240DC0C801B7012AE030E099
:1022800040E050E00E94EB16C901DA017C018D01AB
:10229000C394E114F1040105110571F71C2D04C06C
:1022A00080E30E943C0F1F5F1630D0F36E0108944C
:1022B000C11CD11CC6010E94860F8CE20E943C0FFB
:1022C000809119050E943C0FC301B2010E94490090
:1022D0007B018C01CB01B6014AE050E00E94C506AB
:1022E000C70162E00E94EE0F8EE20E943C0FB70130
:1022F00080E090E00E9449049B01AC01C301B2015F
:102300000E94C10120E034E244E759E40E941F0228
:102310000E9449007B018C01CB01B6014AE050E0EC
:102320000E94C506CC240DC0C801B7012AE030E0E8
:1023300040E050E00E94EB16C901DA017C018D01FA
:10234000C394E114F1040105110571F71C2D04C0BB
:1023500080E30E943C0F1F5F1630D0F3CE01019640
:102360000E94860F8CE20E943C0F809126050E94FD
:102370003C0F81E027960FB6F894DEBF0FBECDBFAD
:10238000CF91DF911F910F91FF90EF90DF90CF9051
:10239000BF90AF909F908F907F906F905F904F9085
:1023A00008956F927F928F929F92AF92BF92CF9239
:1023B000DF92EF92FF920F931F93DF93CF93CDB7EE
:1023C000DEB766970FB6F894DEBF0FBECDBF5C01D7
:1023D0006B0119828AE0FE013396DF01982F1D926E
:1023E0009A95E9F79E01235F3F4FD9011D928A9587
:1023F000E9F71A8242E0E42EF12CEC0EFD1E662471
:1024000063947E2E8F2ED901922E0B2F62C0C701AE
:102410000E94110C8A81843209F05BC0C7010E94BE
:10242000110CC7010E94110CC7010E94110CC701B9
:102430000E94110CC7010E94110C8CEF94E060E621
:1024400070E045E050E00E94B706009709F041C0F7
:10245000698215E0C7010E94110C1F5FE12FF0E0B7
:10246000E550FB4F80818A30A9F780910D058134BA
:1024700031F086E690E00E94860F80E02FC0EFE00A
:10248000F5E0872D982DDC0181918D9385E0E83171
:10249000F807D1F73396892D902FDC0181918D9328
:1024A00095E0E532F907D1F7872D982D60E00E947D
:1024B0003610D5016D937D938D939C931397892D41
:1024C000902F61E00E943610F60160837183828351
:1024D00093838981882309F49ACF81E066960FB6A9
:1024E000F894DEBF0FBECDBFCF91DF911F910F914A
:1024F000FF90EF90DF90CF90BF90AF909F908F9024
:102500007F906F9008950E941E0F8AE891E00E94CC
:102510002D0C81E0089582E660E00E9410088AE1B7
:102520008A95F1F782E660E00E94590881E090E028
:1025300008951F920F920FB60F9211242F933F937D
:102540004F935F936F937F938F939F93AF93BF93BB
:10255000EF93FF9380919501813059F414BC88B7B3
:10256000806488BF84E667E00E941008109295019D
:1025700041C084B5809360051092610588B780647E
:1025800088BF84E667E00E945908609160057091F9
:10259000610580E090E00E94490420E030E040E0E6
:1025A00053E40E941F020E944900DC01CB0190937A
:1025B0006305809362056AE370E00E94C41670931D
:1025C0006505609364050E94AC0F8091640590914D
:1025D000650566E675E04AE050E00E94C50681E0C8
:1025E00062E00E94650F86E695E00E94860F81E01A
:1025F000809395018AB780688ABFFF91EF91BF9160
:10260000AF919F918F917F916F915F914F913F918A
:102610002F910F900FBE0F901F9018950E949E0B48
:102620000E941E0F82E660E041E00E947F0782E682
:1026300060E00E9459088BB780688BBF85B78460C3
:1026400085BF8AB780688ABF789484E667E041E0F6
:102650000E947F070895DC016B30F1F48C91803388
:10266000D9F411968C9111978133B1F412968C9113
:1026700012978053833080F420E030E0FD01E20FB8
:10268000F31F808180538A3038F42F5F3F4F2B3007
:102690003105A1F781E0089580E00895AF92BF92DF
:1026A000CF92DF92EF92FF920F931F93CF93DF931E
:1026B0005B016C01EA01EE24FF248E010E0D1F1D4B
:1026C000B501C6012AE030E040E050E00E94EB1680
:1026D000605DF8016083B501C6012AE030E040E0AA
:1026E00050E00E94EB1659016A010894E11CF11CAC
:1026F000F4E0EF16F10409F798818B8188839B83BE
:1027000099818A8189839A83DF91CF911F910F915B
:10271000FF90EF90DF90CF90BF90AF9008950E9410
:10272000AC0FA5E4B4E0FD0101900020E9F7E65408
:10273000F440CD016E2F0E94EB0B80E197E228EC74
:1027400030E0F9013197F1F70197D9F781E0089569
:102750000E94AC0FA7E2B4E0FD0101900020E9F770
:10276000E852F440CD016E2F0E94EB0B80E197E21E
:1027700028EC30E0F9013197F1F70197D9F781E0C2
:102780000895CF93DF93EC010E94AC0F89818130D3
:1027900049F4A1E9B3E0FD0101900020E9F7E25915
:1027A000F34008C0ADECB3E0FD0101900020E9F773
:1027B000EE5CF340CD016E2F0E94EB0B88818130DF
:1027C00049F4AFEAB3E0FD0101900020E9F7E05BD6
:1027D000F34008C0ABEEB3E0FD0101900020E9F743
:1027E000EC5EF340CD016E2F0E94EB0B80E197E28F
:1027F00028EC30E0F9013197F1F70197D9F780E043
:10280000DF91CF910895CF93DF93EC0188818130E0
:10281000B9F40E94AC0FADEDB2E0FD0101900020D3
:10282000E9F7EE5DF240CD016E2F0E94EB0B80E1E7
:1028300097E228EC30E0F9013197F1F70197D9F7E9
:1028400089818130B9F40E94AC0FABEFB2E0FD0199
:1028500001900020E9F7EC5FF240CD016E2F0E945D
:10286000EB0B80E197E228EC30E0F9013197F1F7CA
:102870000197D9F78A818130B9F40E94AC0FA9E1A0
:10288000B3E0FD0101900020E9F7EA51F340CD01EA
:102890006E2F0E94EB0B80E197E228EC30E0F9010B
:1028A0003197F1F70197D9F780E0DF91CF91089543
:1028B000FF920F931F93DF93CF930F92CDB7DEB7A5
:1028C0008C01F62E19820E942B138983898188231B
:1028D00011F10E94AC0FA9E0B4E0FD0101900020CD
:1028E000E9F7EA50F440CD016E2F0E94EB0BC801CE
:1028F0006F2D0E94EB0B8BE30E94F70B8DE00E9483
:10290000F70B80E395E728EC30E0F9013197F1F718
:102910000197D9F781E00F90CF91DF911F910F912F
:10292000FF900895CF92DF92EF92FF920F931F9343
:10293000DF93CF930F92CDB7DEB78C01D62E7A01FD
:10294000C22E0E942B1389838981882381F1E1148F
:10295000F10469F10E94AC0FA7E3B3E0FD0101901F
:102960000020E9F7E853F340CD016E2F0E94EB0BF6
:1029700082E20E94F70BC8016D2D0E94EB0B82E2F0
:102980000E94F70B8DE00E94F70BC7016C2D0E948F
:10299000EB0B8AE10E94F70B8FEF9FEF28EC30E002
:1029A000F9013197F1F70197D9F781E001C080E093
:1029B0000F90CF91DF911F910F91FF90EF90DF90DB
:1029C000CF9008950F931F93DF93CF9300D000D043
:1029D000CDB7DEB78C01DC018C918130A1F50E946E
:1029E000AC0FA5E5B3E0FD0101900020E9F7E65545
:1029F000F340CD016E2F0E94EB0BD8011196EC91A4
:102A00008FE0E89FF0011124ED59FB4FDF010D909D
:102A10000020E9F71197AE1BBF0BCF016A2F0E9470
:102A2000EB0B8FEF9FEF28EC30E0F9013197F1F7D6
:102A30000197D9F7D8011296ED91FC9113978081F7
:102A4000282F30E041C081E080936B050E94AC0FDD
:102A5000A3E7B3E0FD0101900020E9F7E457F3405C
:102A6000CD016E2F0E94EB0BF801648170E080E0D5
:102A700090E08E010F5F1F4FA8010E944E13C80106
:102A800064E00E94EB0B8DE00E94F70B8FEF9FEF4D
:102A900028EC30E0F9013197F1F70197D9F760910F
:102AA0009E0570919F058CE695E00E94990F80E548
:102AB00093EC28EC30E0F9013197F1F70197D9F761
:102AC00010926B0521E030E0C9010F900F900F903C
:102AD0000F90CF91DF911F910F9108950E94AC0F3D
:102AE00086E991E00E942D0CAFECB1E0FD01019070
:102AF0000020E9F7E05DF140CD016E2F0E94EB0B65
:102B0000AFEBB2E0FD0101900020E9F7E05CF2409C
:102B1000CD016E2F0E94EB0BA3E8B2E0FD01019006
:102B20000020E9F7E458F240CD016E2F0E94EB0B34
:102B3000A9E2B2E0FD0101900020E9F7EA52F2407B
:102B4000CD016E2F0E94EB0B80E29EE428EC30E07A
:102B5000F9013197F1F70197D9F70E94AC0FABE07B
:102B6000B2E0FD0101900020E9F7EC50F240CD0108
:102B70006E2F0E94EB0B80E395E728EC30E0F90123
:102B80003197F1F70197D9F70E94AC0FA1EAB2E0B3
:102B9000FD0101900020E9F7E25AF240CD016E2FCD
:102BA0000E94EB0B80E395E728EC30E0F9013197C8
:102BB000F1F70197D9F70E94AC0FA7E4B2E0FD014D
:102BC00001900020E9F7E854F240CD016E2F0E94F9
:102BD000EB0B80E395E728EC30E0F9013197F1F752
:102BE0000197D9F781E00895DF92EF92FF920F935A
:102BF0001F93DF93CF9300D0CDB7DEB7F82EE62E2C
:102C0000D42E82E066E00E94650F8F2D6AE00E945C
:102C1000B81690E08E010F5F1F4FB8014AE050E0F8
:102C20000E94C506C8010E94860F8F2D6AE00E948F
:102C3000B816892F90E0B8014AE050E00E94C5061E
:102C4000C8010E94860F82E069E00E94650F8E2D08
:102C50006AE00E94B81690E0B8014AE050E00E9495
:102C6000C506C8010E94860F8E2D6AE00E94B81624
:102C7000892F90E0B8014AE050E00E94C506C801E3
:102C80000E94860F82E06CE00E94650F8D2D6AE045
:102C90000E94B81690E0B8014AE050E00E94C506D4
:102CA000C8010E94860F8D2D6AE00E94B816892FF8
:102CB00090E0B8014AE050E00E94C506C8010E94B9
:102CC000860F0F900F90CF91DF911F910F91FF9082
:102CD000EF90DF900895DF93CF9300D0CDB7DEB7AC
:102CE00011BA12BA0E94820B0E941E0F0E94AC0FF2
:102CF00081E062E00E94650F85E790E00E94860F08
:102D000080E197E228EC30E0F9013197F1F7019783
:102D1000D9F7789480E00E94900A0E94D6098AE54B
:102D200060E00E949C0ACE01019664E670E00E9479
:102D3000D8098093A0050E94AC0F81E062E00E9458
:102D4000650F89819A8162E00E94EE0F8091A00553
:102D500090E061E00E94EE0F28EC30E09798979A9F
:102D600084EF91E0F9013197F1F70197D9F7F6CFA8
:102D7000991B79E004C0991F961708F0961B881FCD
:102D80007A95C9F780950895AA1BBB1B51E107C02E
:102D9000AA1FBB1FA617B70710F0A61BB70B881FEB
:102DA000991F5A95A9F780959095BC01CD0108957A
:102DB00097FB092E07260AD077FD04D0E5DF06D061
:102DC00000201AF4709561957F4F0895F6F790955D
:102DD00081959F4F0895A1E21A2EAA1BBB1BFD01EE
:102DE0000DC0AA1FBB1FEE1FFF1FA217B307E407EA
:102DF000F50720F0A21BB30BE40BF50B661F771F42
:102E0000881F991F1A9469F7609570958095909521
:102E10009B01AC01BD01CF0108952F923F924F92CB
:102E20005F926F927F928F929F92AF92BF92CF925A
:102E3000DF92EF92FF920F931F93CF93DF93CDB763
:102E4000DEB7CA1BDB0B0FB6F894DEBF0FBECDBFDB
:102E500009942A88398848885F846E847D848C84AC
:102E60009B84AA84B984C884DF80EE80FD800C81B5
:102E70001B81AA81B981CE0FD11D0FB6F894DEBF98
:0C2E80000FBECDBFED010895F894FFCF08
:102E8C004750524D43006E6F742076616C6964201C
:102E9C00646174610020456D6265646465644661BB
:102EAC0062000000000000000000000102020303A9
:102EBC0003030404040404040404050505050505C2
:102ECC0005050505050505050505060606060606A0
:102EDC000606060606060606060606060606060686
:102EEC000606060606060606060607070707070770
:102EFC000707070707070707070707070707070756
:102F0C000707070707070707070707070707070745
:102F1C000707070707070707070707070707070735
:102F2C00070707070707070707070808080808081F
:102F3C000808080808080808080808080808080805
:102F4C0008080808080808080808080808080808F5
:102F5C0008080808080808080808080808080808E5
:102F6C0008080808080808080808080808080808D5
:102F7C0008080808080808080808080808080808C5
:102F8C0008080808080808080808080808080808B5
:102F9C0008080808080808080808080808080808A5
:102FAC000808080808080808080880250000080018
:102FBC000000000101018025000008000001000153
:102FCC00012C002B002A00400040002900000000CA
:102FDC004341540D00000000000000000000000000
:102FEC000000000000000000000000000000004194
:102FFC005445300D000000000000000000000000EF
:10300C0000000000000000000000000000415445DA
:10301C00310D000000000000000000000000000066
:10302C00000000000000000000000041542B435041
:10303C00494E3F0D000000000000000000000000A1
:10304C0000000000000000000041542B4946433DA5
:10305C00302C300D000000000000000000000000CB
:10306C000000000000000041542B435245473D3105
:10307C000D00000000000000000000000000000037
:10308C00000000000041542B4950523D393630307D
:10309C000D00000000000000000000000000000017
:1030AC0000000041542B434D45453D310D000000BF
:1030BC000000000000000000000000000000000004
:1030CC000041542B435041530D0000000000000000
:1030DC0000000000000000000000000000000041A3
:1030EC00542B57494E443D36330D00000000000070
:1030FC000000000000000000000000000041542B04
:10310C00434E4D493D302C312C312C312C300D009F
:10311C00000000000000000000000041542B43534D
:10312C004D503D31372C3136392C302C300D0000C0
:10313C0000000000000000000041542B434D4746A6
:10314C003D310D00000000000000000000000000F8
:10315C000000000000000041542B434D47533D003C
:10316C000000000000000000000000000000000053
:10317C00000000000041542B434D474C3D00000023
:10318C000000000000000000000000000000000033
:10319C0000000041542B434D47523D0000000000FD
:1031AC000000000000000000000000000000000013
:1031BC000041542B434C49503D310D0000000000A0
:1031CC0000000000000000000000000000000041B2
:1031DC00542B4352433D310D000000000000000011
:1031EC000000000000000000000000000041542B13
:1031FC00434C49503D300D00000000000000000021
:10320C00000000000000000000000041542B43525D
:10321C00433D300D000000000000000000000000E5
:10322C0000000000000000000041544400000000B9
:10323C000000000000000000000000000000000082
:10324C00000000000000004154410D00000000008F
:10325C000000000000000000000000000000000062
:10326C0000000000004154480D0000000000000068
:10327C000000000000000000000000000000000042
:10328C0000000022414C4C220D0000000000000008
:10329C000000225245432052454144220D000000BB
:1032AC00002252454320554E52454144220D000008
:1032BC002253544F2053454E54220D00000000223F
:1032CC0053544F20554E53454E54220D00000000D0
:0E32DC000000000000000000000000000000E4
:00000001FF
